{
  "_format": "hh-sol-artifact-1",
  "contractName": "NFTLotteryPoolFactory",
  "sourceName": "contracts/NFTLotteryPoolFactory.sol",
  "abi": [
    {
      "anonymous": false,
      "inputs": [
        {
          "indexed": false,
          "internalType": "address",
          "name": "pool",
          "type": "address"
        },
        {
          "indexed": false,
          "internalType": "address",
          "name": "deployer",
          "type": "address"
        }
      ],
      "name": "LotteryDeployed",
      "type": "event"
    },
    {
      "anonymous": false,
      "inputs": [
        {
          "indexed": true,
          "internalType": "address",
          "name": "previousOwner",
          "type": "address"
        },
        {
          "indexed": true,
          "internalType": "address",
          "name": "newOwner",
          "type": "address"
        }
      ],
      "name": "OwnershipTransferred",
      "type": "event"
    },
    {
      "inputs": [],
      "name": "claimETH",
      "outputs": [],
      "stateMutability": "nonpayable",
      "type": "function"
    },
    {
      "inputs": [
        {
          "internalType": "address",
          "name": "_prizeAddress",
          "type": "address"
        },
        {
          "internalType": "uint256",
          "name": "_prizeId",
          "type": "uint256"
        },
        {
          "internalType": "uint64",
          "name": "_startDate",
          "type": "uint64"
        },
        {
          "internalType": "uint64",
          "name": "_endDate",
          "type": "uint64"
        },
        {
          "internalType": "uint32",
          "name": "_minTicketsToSell",
          "type": "uint32"
        },
        {
          "internalType": "uint32",
          "name": "_maxTickets",
          "type": "uint32"
        },
        {
          "internalType": "uint32",
          "name": "_maxTicketsPerAddress",
          "type": "uint32"
        },
        {
          "internalType": "uint256",
          "name": "_ticketPrice",
          "type": "uint256"
        }
      ],
      "name": "createNFTLotteryPool",
      "outputs": [],
      "stateMutability": "payable",
      "type": "function"
    },
    {
      "inputs": [],
      "name": "distributorAddress",
      "outputs": [
        {
          "internalType": "address",
          "name": "",
          "type": "address"
        }
      ],
      "stateMutability": "view",
      "type": "function"
    },
    {
      "inputs": [],
      "name": "fee",
      "outputs": [
        {
          "internalType": "uint256",
          "name": "",
          "type": "uint256"
        }
      ],
      "stateMutability": "view",
      "type": "function"
    },
    {
      "inputs": [],
      "name": "getAllPool",
      "outputs": [
        {
          "components": [
            {
              "internalType": "address",
              "name": "poolAddr",
              "type": "address"
            },
            {
              "internalType": "address",
              "name": "nftAddr",
              "type": "address"
            },
            {
              "internalType": "uint256",
              "name": "tokenId",
              "type": "uint256"
            }
          ],
          "internalType": "struct NFTLotteryPoolFactory.PoolInfo[]",
          "name": "",
          "type": "tuple[]"
        }
      ],
      "stateMutability": "view",
      "type": "function"
    },
    {
      "inputs": [
        {
          "internalType": "bytes32",
          "name": "salt",
          "type": "bytes32"
        }
      ],
      "name": "getLotteryAddress",
      "outputs": [
        {
          "internalType": "address",
          "name": "",
          "type": "address"
        }
      ],
      "stateMutability": "view",
      "type": "function"
    },
    {
      "inputs": [
        {
          "internalType": "address",
          "name": "_distributorAddress",
          "type": "address"
        },
        {
          "internalType": "address",
          "name": "_linkAddress",
          "type": "address"
        },
        {
          "internalType": "uint256",
          "name": "_fee",
          "type": "uint256"
        },
        {
          "internalType": "address",
          "name": "_template",
          "type": "address"
        }
      ],
      "name": "initialize",
      "outputs": [],
      "stateMutability": "nonpayable",
      "type": "function"
    },
    {
      "inputs": [],
      "name": "linkAddress",
      "outputs": [
        {
          "internalType": "address",
          "name": "",
          "type": "address"
        }
      ],
      "stateMutability": "view",
      "type": "function"
    },
    {
      "inputs": [
        {
          "internalType": "address",
          "name": "",
          "type": "address"
        },
        {
          "internalType": "address",
          "name": "",
          "type": "address"
        },
        {
          "internalType": "uint256",
          "name": "",
          "type": "uint256"
        },
        {
          "internalType": "bytes",
          "name": "",
          "type": "bytes"
        }
      ],
      "name": "onERC721Received",
      "outputs": [
        {
          "internalType": "bytes4",
          "name": "",
          "type": "bytes4"
        }
      ],
      "stateMutability": "nonpayable",
      "type": "function"
    },
    {
      "inputs": [],
      "name": "owner",
      "outputs": [
        {
          "internalType": "address",
          "name": "",
          "type": "address"
        }
      ],
      "stateMutability": "view",
      "type": "function"
    },
    {
      "inputs": [],
      "name": "poolFee",
      "outputs": [
        {
          "internalType": "uint256",
          "name": "",
          "type": "uint256"
        }
      ],
      "stateMutability": "view",
      "type": "function"
    },
    {
      "inputs": [
        {
          "internalType": "uint256",
          "name": "",
          "type": "uint256"
        }
      ],
      "name": "poolIdToPoolInfos",
      "outputs": [
        {
          "internalType": "address",
          "name": "poolAddr",
          "type": "address"
        },
        {
          "internalType": "address",
          "name": "nftAddr",
          "type": "address"
        },
        {
          "internalType": "uint256",
          "name": "tokenId",
          "type": "uint256"
        }
      ],
      "stateMutability": "view",
      "type": "function"
    },
    {
      "inputs": [],
      "name": "renounceOwnership",
      "outputs": [],
      "stateMutability": "nonpayable",
      "type": "function"
    },
    {
      "inputs": [],
      "name": "template",
      "outputs": [
        {
          "internalType": "address",
          "name": "",
          "type": "address"
        }
      ],
      "stateMutability": "view",
      "type": "function"
    },
    {
      "inputs": [
        {
          "internalType": "address",
          "name": "nftAddr",
          "type": "address"
        },
        {
          "internalType": "uint256",
          "name": "tokenId",
          "type": "uint256"
        }
      ],
      "name": "transferNft",
      "outputs": [],
      "stateMutability": "nonpayable",
      "type": "function"
    },
    {
      "inputs": [
        {
          "internalType": "address",
          "name": "newOwner",
          "type": "address"
        }
      ],
      "name": "transferOwnership",
      "outputs": [],
      "stateMutability": "nonpayable",
      "type": "function"
    },
    {
      "inputs": [
        {
          "internalType": "uint256",
          "name": "f",
          "type": "uint256"
        }
      ],
      "name": "updatePoolFee",
      "outputs": [],
      "stateMutability": "nonpayable",
      "type": "function"
    }
  ],
  "bytecode": "0x608060405234801561001057600080fd5b50611554806100206000396000f3fe6080604052600436106100fe5760003560e01c8063715018a611610095578063bd1dc0d111610064578063bd1dc0d1146102df578063be203094146102ff578063c2cac04b1461031f578063ddca3f431461033f578063f2fde38b1461035557600080fd5b8063715018a61461026a5780638da5cb5b1461027f578063a20a4cb41461029d578063a51af4c5146102bf57600080fd5b8063235cea98116100d1578063235cea98146101dd57806360cc11211461021557806367272999146102355780636f2ddd931461024a57600080fd5b8063089fe6aa146101035780630f2d385a1461012c578063150b7a02146101415780631f9b637e14610185575b600080fd5b34801561010f57600080fd5b5061011960cd5481565b6040519081526020015b60405180910390f35b61013f61013a366004611244565b610375565b005b34801561014d57600080fd5b5061016c61015c366004611146565b630a85bd0160e11b949350505050565b6040516001600160e01b03199091168152602001610123565b34801561019157600080fd5b506101ce6101a03660046112ec565b60cf602052600090815260409020805460018201546002909201546001600160a01b03918216929091169083565b60405161012393929190611320565b3480156101e957600080fd5b5060ca546101fd906001600160a01b031681565b6040516001600160a01b039091168152602001610123565b34801561022157600080fd5b5061013f61023036600461121b565b610710565b34801561024157600080fd5b5061013f610861565b34801561025657600080fd5b5060ce546101fd906001600160a01b031681565b34801561027657600080fd5b5061013f6108f4565b34801561028b57600080fd5b506033546001600160a01b03166101fd565b3480156102a957600080fd5b506102b261092a565b6040516101239190611344565b3480156102cb57600080fd5b5060cb546101fd906001600160a01b031681565b3480156102eb57600080fd5b506101fd6102fa3660046112ec565b6109ce565b34801561030b57600080fd5b5061013f61031a3660046110fa565b6109ed565b34801561032b57600080fd5b5061013f61033a3660046112ec565b610aff565b34801561034b57600080fd5b5061011960cc5481565b34801561036157600080fd5b5061013f6103703660046110e0565b610b2e565b600260975414156103a15760405162461bcd60e51b81526004016103989061145c565b60405180910390fd5b600260975560cd543410156103e25760405162461bcd60e51b81526020600482015260076024820152665061792066656560c81b6044820152606401610398565b6000805b60c95481101561047657600060cf81610400846001611493565b81526020808201929092526040908101600020815160608101835281546001600160a01b03908116825260018301548116948201859052600290920154928101929092529092508c161480156104595750898160400151145b1561046357805192505b508061046e816114d7565b9150506103e6565b506001600160a01b0381166104e75760405162461bcd60e51b815260206004820152603160248201527f4552524f523a204e6f6e20457869737420506f6f6c2c20506c6561736520636860448201527032b1b5903cb7bab9103a3930b739b332b960791b6064820152608401610398565b60405163b9a2457360e01b81526001600160a01b038a81166004830152602482018a905267ffffffffffffffff808a1660448401528816606483015263ffffffff808816608484015280871660a4840152851660c483015260e4820184905282169063b9a245739061010401600060405180830381600087803b15801561056d57600080fd5b505af1158015610581573d6000803e3d6000fd5b505060405163f2fde38b60e01b81523360048201526001600160a01b038416925063f2fde38b9150602401600060405180830381600087803b1580156105c657600080fd5b505af11580156105da573d6000803e3d6000fd5b505060405163095ea7b360e01b81526001600160a01b038481166004830152602482018c90528c16925063095ea7b39150604401600060405180830381600087803b15801561062857600080fd5b505af115801561063c573d6000803e3d6000fd5b5050604051632142170760e11b81526001600160a01b038c1692506342842e0e915061067090309085908d90600401611320565b600060405180830381600087803b15801561068a57600080fd5b505af115801561069e573d6000803e3d6000fd5b505060cc5460ca546106bf93506001600160a01b0316915033908490610bc9565b604080516001600160a01b03831681523360208201527f7dda97fb513bc2337912013e6ada0de01392dd00f2044277559bbf64809e832e910160405180910390a15050600160975550505050505050565b600260975414156107335760405162461bcd60e51b81526004016103989061145c565b6002609755604051632142170760e11b81526001600160a01b038316906342842e0e9061076890339030908690600401611320565b600060405180830381600087803b15801561078257600080fd5b505af1158015610796573d6000803e3d6000fd5b505050506107a860c980546001019055565b60006107b360c95490565b60ce5490915081906000906107d1906001600160a01b031683610c27565b604080516060810182526001600160a01b03838116825288811660208084019182528385018a815260008a815260cf8352868120865181549087166001600160a01b03199182161782559451600182018054919097169516949094179094555160029092019190915533825260d0905291909120919250906108539085610cc7565b505060016097555050505050565b6033546001600160a01b0316331461088b5760405162461bcd60e51b8152600401610398906113dc565b600260975414156108ae5760405162461bcd60e51b81526004016103989061145c565b60026097556033546040516001600160a01b03909116904780156108fc02916000818181858888f193505050501580156108ec573d6000803e3d6000fd5b506001609755565b6033546001600160a01b0316331461091e5760405162461bcd60e51b8152600401610398906113dc565b6109286000610cda565b565b60608060005b60c9548110156109c85760cf6000610949836001611493565b81526020808201929092526040908101600020815160608101835281546001600160a01b03908116825260018301541693810193909352600201549082015282518390839081106109aa57634e487b7160e01b600052603260045260246000fd5b602002602001018190525080806109c0906114d7565b915050610930565b50919050565b60ce546000906109e7906001600160a01b031683610d2c565b92915050565b600054610100900460ff16610a085760005460ff1615610a0c565b303b155b610a6f5760405162461bcd60e51b815260206004820152602e60248201527f496e697469616c697a61626c653a20636f6e747261637420697320616c72656160448201526d191e481a5b9a5d1a585b1a5e995960921b6064820152608401610398565b600054610100900460ff16158015610a91576000805461ffff19166101011790555b610a99610d92565b60ca80546001600160a01b038087166001600160a01b03199283161790925560cb805488841690831617905560cc85905560ce80549285169290911691909117905566038d7ea4c6800060cd558015610af8576000805461ff00191690555b5050505050565b6033546001600160a01b03163314610b295760405162461bcd60e51b8152600401610398906113dc565b60cd55565b6033546001600160a01b03163314610b585760405162461bcd60e51b8152600401610398906113dc565b6001600160a01b038116610bbd5760405162461bcd60e51b815260206004820152602660248201527f4f776e61626c653a206e6577206f776e657220697320746865207a65726f206160448201526564647265737360d01b6064820152608401610398565b610bc681610cda565b50565b610c21846323b872dd60e01b858585604051602401610bea93929190611320565b60408051601f198184030181529190526020810180516001600160e01b03166001600160e01b031990931692909217909152610dc1565b50505050565b6000604051733d602d80600a3d3981f3363d3d373d3d3d363d7360601b81528360601b60148201526e5af43d82803e903d91602b57fd5bf360881b6028820152826037826000f59150506001600160a01b0381166109e75760405162461bcd60e51b815260206004820152601760248201527f455243313136373a2063726561746532206661696c65640000000000000000006044820152606401610398565b6000610cd38383610e98565b9392505050565b603380546001600160a01b038381166001600160a01b0319831681179093556040519116919082907f8be0079c531659141344cd1fd0a4f28419497f9722a3daafe3b4186f6b6457e090600090a35050565b6000610cd3838330604051733d602d80600a3d3981f3363d3d373d3d3d363d7360601b8152606093841b60148201526f5af43d82803e903d91602b57fd5bf3ff60801b6028820152921b6038830152604c8201526037808220606c830152605591012090565b600054610100900460ff16610db95760405162461bcd60e51b815260040161039890611411565b610928610ee7565b6000610e16826040518060400160405280602081526020017f5361666545524332303a206c6f772d6c6576656c2063616c6c206661696c6564815250856001600160a01b0316610f179092919063ffffffff16565b805190915015610e935780806020019051810190610e3491906112cc565b610e935760405162461bcd60e51b815260206004820152602a60248201527f5361666545524332303a204552433230206f7065726174696f6e20646964206e6044820152691bdd081cdd58d8d9595960b21b6064820152608401610398565b505050565b6000818152600183016020526040812054610edf575081546001818101845560008481526020808220909301849055845484825282860190935260409020919091556109e7565b5060006109e7565b600054610100900460ff16610f0e5760405162461bcd60e51b815260040161039890611411565b61092833610cda565b6060610f268484600085610f2e565b949350505050565b606082471015610f8f5760405162461bcd60e51b815260206004820152602660248201527f416464726573733a20696e73756666696369656e742062616c616e636520666f6044820152651c8818d85b1b60d21b6064820152608401610398565b6001600160a01b0385163b610fe65760405162461bcd60e51b815260206004820152601d60248201527f416464726573733a2063616c6c20746f206e6f6e2d636f6e74726163740000006044820152606401610398565b600080866001600160a01b031685876040516110029190611304565b60006040518083038185875af1925050503d806000811461103f576040519150601f19603f3d011682016040523d82523d6000602084013e611044565b606091505b509150915061105482828661105f565b979650505050505050565b6060831561106e575081610cd3565b82511561107e5782518084602001fd5b8160405162461bcd60e51b815260040161039891906113a9565b80356001600160a01b03811681146110af57600080fd5b919050565b803563ffffffff811681146110af57600080fd5b803567ffffffffffffffff811681146110af57600080fd5b6000602082840312156110f1578081fd5b610cd382611098565b6000806000806080858703121561110f578283fd5b61111885611098565b935061112660208601611098565b92506040850135915061113b60608601611098565b905092959194509250565b6000806000806080858703121561115b578384fd5b61116485611098565b935061117260208601611098565b925060408501359150606085013567ffffffffffffffff80821115611195578283fd5b818701915087601f8301126111a8578283fd5b8135818111156111ba576111ba611508565b604051601f8201601f19908116603f011681019083821181831017156111e2576111e2611508565b816040528281528a60208487010111156111fa578586fd5b82602086016020830137918201602001949094529598949750929550505050565b6000806040838503121561122d578182fd5b61123683611098565b946020939093013593505050565b600080600080600080600080610100898b031215611260578384fd5b61126989611098565b97506020890135965061127e60408a016110c8565b955061128c60608a016110c8565b945061129a60808a016110b4565b93506112a860a08a016110b4565b92506112b660c08a016110b4565b915060e089013590509295985092959890939650565b6000602082840312156112dd578081fd5b81518015158114610cd3578182fd5b6000602082840312156112fd578081fd5b5035919050565b600082516113168184602087016114ab565b9190910192915050565b6001600160a01b039384168152919092166020820152604081019190915260600190565b602080825282518282018190526000919060409081850190868401855b8281101561139c57815180516001600160a01b0390811686528782015116878601528501518585015260609093019290850190600101611361565b5091979650505050505050565b60208152600082518060208401526113c88160408501602087016114ab565b601f01601f19169190910160400192915050565b6020808252818101527f4f776e61626c653a2063616c6c6572206973206e6f7420746865206f776e6572604082015260600190565b6020808252602b908201527f496e697469616c697a61626c653a20636f6e7472616374206973206e6f74206960408201526a6e697469616c697a696e6760a81b606082015260800190565b6020808252601f908201527f5265656e7472616e637947756172643a207265656e7472616e742063616c6c00604082015260600190565b600082198211156114a6576114a66114f2565b500190565b60005b838110156114c65781810151838201526020016114ae565b83811115610c215750506000910152565b60006000198214156114eb576114eb6114f2565b5060010190565b634e487b7160e01b600052601160045260246000fd5b634e487b7160e01b600052604160045260246000fdfea2646970667358221220ecc0657ddb6c3b1cf1f06e01745e3fab3a6607a3495bd24bbab0ef9240c5e46164736f6c63430008040033",
  "linkReferences": {},
  "deployedLinkReferences": {}
}