{
  "_format": "hh-sol-artifact-1",
  "contractName": "NFTLotteryPool",
  "sourceName": "contracts/NFTLotteryPool.sol",
  "abi": [
    {
      "anonymous": false,
      "inputs": [
        {
          "indexed": true,
          "internalType": "address",
          "name": "owner",
          "type": "address"
        },
        {
          "indexed": true,
          "internalType": "address",
          "name": "approved",
          "type": "address"
        },
        {
          "indexed": true,
          "internalType": "uint256",
          "name": "tokenId",
          "type": "uint256"
        }
      ],
      "name": "Approval",
      "type": "event"
    },
    {
      "anonymous": false,
      "inputs": [
        {
          "indexed": true,
          "internalType": "address",
          "name": "owner",
          "type": "address"
        },
        {
          "indexed": true,
          "internalType": "address",
          "name": "operator",
          "type": "address"
        },
        {
          "indexed": false,
          "internalType": "bool",
          "name": "approved",
          "type": "bool"
        }
      ],
      "name": "ApprovalForAll",
      "type": "event"
    },
    {
      "anonymous": false,
      "inputs": [
        {
          "indexed": true,
          "internalType": "address",
          "name": "previousOwner",
          "type": "address"
        },
        {
          "indexed": true,
          "internalType": "address",
          "name": "newOwner",
          "type": "address"
        }
      ],
      "name": "OwnershipTransferred",
      "type": "event"
    },
    {
      "anonymous": false,
      "inputs": [
        {
          "indexed": true,
          "internalType": "address",
          "name": "from",
          "type": "address"
        },
        {
          "indexed": true,
          "internalType": "address",
          "name": "to",
          "type": "address"
        },
        {
          "indexed": true,
          "internalType": "uint256",
          "name": "tokenId",
          "type": "uint256"
        }
      ],
      "name": "Transfer",
      "type": "event"
    },
    {
      "inputs": [
        {
          "internalType": "address",
          "name": "to",
          "type": "address"
        },
        {
          "internalType": "uint256",
          "name": "tokenId",
          "type": "uint256"
        }
      ],
      "name": "approve",
      "outputs": [],
      "stateMutability": "nonpayable",
      "type": "function"
    },
    {
      "inputs": [
        {
          "internalType": "address",
          "name": "owner",
          "type": "address"
        }
      ],
      "name": "balanceOf",
      "outputs": [
        {
          "internalType": "uint256",
          "name": "",
          "type": "uint256"
        }
      ],
      "stateMutability": "view",
      "type": "function"
    },
    {
      "inputs": [
        {
          "internalType": "uint256",
          "name": "numTickets",
          "type": "uint256"
        }
      ],
      "name": "buyTickets",
      "outputs": [],
      "stateMutability": "payable",
      "type": "function"
    },
    {
      "inputs": [],
      "name": "claimETH",
      "outputs": [],
      "stateMutability": "nonpayable",
      "type": "function"
    },
    {
      "inputs": [],
      "name": "distributePrize",
      "outputs": [],
      "stateMutability": "nonpayable",
      "type": "function"
    },
    {
      "inputs": [],
      "name": "endDate",
      "outputs": [
        {
          "internalType": "uint64",
          "name": "",
          "type": "uint64"
        }
      ],
      "stateMutability": "view",
      "type": "function"
    },
    {
      "inputs": [
        {
          "internalType": "uint256",
          "name": "tokenId",
          "type": "uint256"
        }
      ],
      "name": "getApproved",
      "outputs": [
        {
          "internalType": "address",
          "name": "",
          "type": "address"
        }
      ],
      "stateMutability": "view",
      "type": "function"
    },
    {
      "inputs": [
        {
          "internalType": "uint256[]",
          "name": "ids",
          "type": "uint256[]"
        }
      ],
      "name": "getRefund",
      "outputs": [],
      "stateMutability": "nonpayable",
      "type": "function"
    },
    {
      "inputs": [],
      "name": "hasCalledVRF",
      "outputs": [
        {
          "internalType": "bool",
          "name": "",
          "type": "bool"
        }
      ],
      "stateMutability": "view",
      "type": "function"
    },
    {
      "inputs": [
        {
          "internalType": "address",
          "name": "_prizeAddress",
          "type": "address"
        },
        {
          "internalType": "uint256",
          "name": "_prizeId",
          "type": "uint256"
        },
        {
          "internalType": "uint64",
          "name": "_startDate",
          "type": "uint64"
        },
        {
          "internalType": "uint64",
          "name": "_endDate",
          "type": "uint64"
        },
        {
          "internalType": "uint32",
          "name": "_minTicketsToSell",
          "type": "uint32"
        },
        {
          "internalType": "uint32",
          "name": "_maxTickets",
          "type": "uint32"
        },
        {
          "internalType": "uint32",
          "name": "_maxTicketsPerAddress",
          "type": "uint32"
        },
        {
          "internalType": "uint256",
          "name": "_ticketPrice",
          "type": "uint256"
        }
      ],
      "name": "initialize",
      "outputs": [],
      "stateMutability": "nonpayable",
      "type": "function"
    },
    {
      "inputs": [
        {
          "internalType": "address",
          "name": "owner",
          "type": "address"
        },
        {
          "internalType": "address",
          "name": "operator",
          "type": "address"
        }
      ],
      "name": "isApprovedForAll",
      "outputs": [
        {
          "internalType": "bool",
          "name": "",
          "type": "bool"
        }
      ],
      "stateMutability": "view",
      "type": "function"
    },
    {
      "inputs": [],
      "name": "isRefundOpen",
      "outputs": [
        {
          "internalType": "bool",
          "name": "",
          "type": "bool"
        }
      ],
      "stateMutability": "view",
      "type": "function"
    },
    {
      "inputs": [],
      "name": "maxTickets",
      "outputs": [
        {
          "internalType": "uint32",
          "name": "",
          "type": "uint32"
        }
      ],
      "stateMutability": "view",
      "type": "function"
    },
    {
      "inputs": [],
      "name": "maxTicketsPerAddress",
      "outputs": [
        {
          "internalType": "uint32",
          "name": "",
          "type": "uint32"
        }
      ],
      "stateMutability": "view",
      "type": "function"
    },
    {
      "inputs": [],
      "name": "minTicketsToSell",
      "outputs": [
        {
          "internalType": "uint32",
          "name": "",
          "type": "uint32"
        }
      ],
      "stateMutability": "view",
      "type": "function"
    },
    {
      "inputs": [],
      "name": "name",
      "outputs": [
        {
          "internalType": "string",
          "name": "",
          "type": "string"
        }
      ],
      "stateMutability": "view",
      "type": "function"
    },
    {
      "inputs": [
        {
          "internalType": "address",
          "name": "",
          "type": "address"
        },
        {
          "internalType": "address",
          "name": "",
          "type": "address"
        },
        {
          "internalType": "uint256",
          "name": "",
          "type": "uint256"
        },
        {
          "internalType": "bytes",
          "name": "",
          "type": "bytes"
        }
      ],
      "name": "onERC721Received",
      "outputs": [
        {
          "internalType": "bytes4",
          "name": "",
          "type": "bytes4"
        }
      ],
      "stateMutability": "nonpayable",
      "type": "function"
    },
    {
      "inputs": [],
      "name": "owner",
      "outputs": [
        {
          "internalType": "address",
          "name": "",
          "type": "address"
        }
      ],
      "stateMutability": "view",
      "type": "function"
    },
    {
      "inputs": [
        {
          "internalType": "uint256",
          "name": "tokenId",
          "type": "uint256"
        }
      ],
      "name": "ownerOf",
      "outputs": [
        {
          "internalType": "address",
          "name": "",
          "type": "address"
        }
      ],
      "stateMutability": "view",
      "type": "function"
    },
    {
      "inputs": [],
      "name": "prizeAddress",
      "outputs": [
        {
          "internalType": "address",
          "name": "",
          "type": "address"
        }
      ],
      "stateMutability": "view",
      "type": "function"
    },
    {
      "inputs": [],
      "name": "prizeId",
      "outputs": [
        {
          "internalType": "uint256",
          "name": "",
          "type": "uint256"
        }
      ],
      "stateMutability": "view",
      "type": "function"
    },
    {
      "inputs": [],
      "name": "refundOwnerAssets",
      "outputs": [],
      "stateMutability": "nonpayable",
      "type": "function"
    },
    {
      "inputs": [],
      "name": "renounceOwnership",
      "outputs": [],
      "stateMutability": "nonpayable",
      "type": "function"
    },
    {
      "inputs": [
        {
          "internalType": "address",
          "name": "from",
          "type": "address"
        },
        {
          "internalType": "address",
          "name": "to",
          "type": "address"
        },
        {
          "internalType": "uint256",
          "name": "tokenId",
          "type": "uint256"
        }
      ],
      "name": "safeTransferFrom",
      "outputs": [],
      "stateMutability": "nonpayable",
      "type": "function"
    },
    {
      "inputs": [
        {
          "internalType": "address",
          "name": "from",
          "type": "address"
        },
        {
          "internalType": "address",
          "name": "to",
          "type": "address"
        },
        {
          "internalType": "uint256",
          "name": "tokenId",
          "type": "uint256"
        },
        {
          "internalType": "bytes",
          "name": "_data",
          "type": "bytes"
        }
      ],
      "name": "safeTransferFrom",
      "outputs": [],
      "stateMutability": "nonpayable",
      "type": "function"
    },
    {
      "inputs": [
        {
          "internalType": "address",
          "name": "operator",
          "type": "address"
        },
        {
          "internalType": "bool",
          "name": "approved",
          "type": "bool"
        }
      ],
      "name": "setApprovalForAll",
      "outputs": [],
      "stateMutability": "nonpayable",
      "type": "function"
    },
    {
      "inputs": [],
      "name": "startDate",
      "outputs": [
        {
          "internalType": "uint64",
          "name": "",
          "type": "uint64"
        }
      ],
      "stateMutability": "view",
      "type": "function"
    },
    {
      "inputs": [
        {
          "internalType": "bytes4",
          "name": "interfaceId",
          "type": "bytes4"
        }
      ],
      "name": "supportsInterface",
      "outputs": [
        {
          "internalType": "bool",
          "name": "",
          "type": "bool"
        }
      ],
      "stateMutability": "view",
      "type": "function"
    },
    {
      "inputs": [],
      "name": "symbol",
      "outputs": [
        {
          "internalType": "string",
          "name": "",
          "type": "string"
        }
      ],
      "stateMutability": "view",
      "type": "function"
    },
    {
      "inputs": [],
      "name": "ticketPrice",
      "outputs": [
        {
          "internalType": "uint256",
          "name": "",
          "type": "uint256"
        }
      ],
      "stateMutability": "view",
      "type": "function"
    },
    {
      "inputs": [],
      "name": "tokenCounter",
      "outputs": [
        {
          "internalType": "uint256",
          "name": "",
          "type": "uint256"
        }
      ],
      "stateMutability": "view",
      "type": "function"
    },
    {
      "inputs": [
        {
          "internalType": "uint256",
          "name": "id",
          "type": "uint256"
        }
      ],
      "name": "tokenURI",
      "outputs": [
        {
          "internalType": "string",
          "name": "",
          "type": "string"
        }
      ],
      "stateMutability": "view",
      "type": "function"
    },
    {
      "inputs": [
        {
          "internalType": "address",
          "name": "from",
          "type": "address"
        },
        {
          "internalType": "address",
          "name": "to",
          "type": "address"
        },
        {
          "internalType": "uint256",
          "name": "tokenId",
          "type": "uint256"
        }
      ],
      "name": "transferFrom",
      "outputs": [],
      "stateMutability": "nonpayable",
      "type": "function"
    },
    {
      "inputs": [
        {
          "internalType": "address",
          "name": "newOwner",
          "type": "address"
        }
      ],
      "name": "transferOwnership",
      "outputs": [],
      "stateMutability": "nonpayable",
      "type": "function"
    },
    {
      "inputs": [],
      "name": "unlockRefund",
      "outputs": [],
      "stateMutability": "nonpayable",
      "type": "function"
    }
  ],
  "bytecode": "0x608060405234801561001057600080fd5b50612fa2806100206000396000f3fe6080604052600436106102045760003560e01c806370a0823111610118578063b30196e5116100a0578063c87b56dd1161006f578063c87b56dd14610608578063d03c0cd014610628578063d082e3811461063f578063e985e9c514610656578063f2fde38b1461069f57600080fd5b8063b30196e514610580578063b88d4fde146105a0578063b9a24573146105c0578063c24a0f8b146105e057600080fd5b80638da5cb5b116100e75780638da5cb5b146104ed57806395d89b411461050b5780639b89470314610520578063a22cb46514610545578063b2bf1d191461056557600080fd5b806370a082311461048e578063715018a6146104ae57806372503ea2146104c357806377b6e504146104d857600080fd5b80631209b1f61161019b5780632f3666371161016a5780632f3666371461040157806342842e0e14610414578063463a94a5146104345780636352211e14610459578063672729991461047957600080fd5b80631209b1f614610363578063150b7a021461038857806323b872dd146103c15780632a7368c1146103e157600080fd5b8063095ea7b3116101d7578063095ea7b3146102d25780630a961fa1146102f45780630b97bc86146103095780630de372871461034257600080fd5b806301ffc9a71461020957806306a796371461023e57806306fdde0314610278578063081812fc1461029a575b600080fd5b34801561021557600080fd5b50610229610224366004612af6565b6106bf565b60405190151581526020015b60405180910390f35b34801561024a57600080fd5b506101325461026390600160801b900463ffffffff1681565b60405163ffffffff9091168152602001610235565b34801561028457600080fd5b5061028d610711565b6040516102359190612c55565b3480156102a657600080fd5b506102ba6102b5366004612ba0565b6107a3565b6040516001600160a01b039091168152602001610235565b3480156102de57600080fd5b506102f26102ed3660046129b6565b61083d565b005b34801561030057600080fd5b506102f2610953565b34801561031557600080fd5b506101325461032a906001600160401b031681565b6040516001600160401b039091168152602001610235565b34801561034e57600080fd5b50610130546102ba906001600160a01b031681565b34801561036f57600080fd5b5061037a6101335481565b604051908152602001610235565b34801561039457600080fd5b506103a86103a33660046128e3565b610b5f565b6040516001600160e01b03199091168152602001610235565b3480156103cd57600080fd5b506102f26103dc3660046128a3565b610b70565b3480156103ed57600080fd5b506102f26103fc366004612a6b565b610ba1565b6102f261040f366004612ba0565b610da0565b34801561042057600080fd5b506102f261042f3660046128a3565b610fa5565b34801561044057600080fd5b506101325461026390600160c01b900463ffffffff1681565b34801561046557600080fd5b506102ba610474366004612ba0565b610fc0565b34801561048557600080fd5b506102f2611037565b34801561049a57600080fd5b5061037a6104a9366004612833565b6111b4565b3480156104ba57600080fd5b506102f261123b565b3480156104cf57600080fd5b506102f2611271565b3480156104e457600080fd5b506102f261132b565b3480156104f957600080fd5b506097546001600160a01b03166102ba565b34801561051757600080fd5b5061028d6116d2565b34801561052c57600080fd5b506101325461026390600160a01b900463ffffffff1681565b34801561055157600080fd5b506102f2610560366004612989565b6116e1565b34801561057157600080fd5b50610134546102299060ff1681565b34801561058c57600080fd5b506101345461022990610100900460ff1681565b3480156105ac57600080fd5b506102f26105bb3660046128e3565b6116ec565b3480156105cc57600080fd5b506102f26105db3660046129e1565b61171e565b3480156105ec57600080fd5b506101325461032a90600160401b90046001600160401b031681565b34801561061457600080fd5b5061028d610623366004612ba0565b611b66565b34801561063457600080fd5b5061037a6101315481565b34801561064b57600080fd5b5061037a6101355481565b34801561066257600080fd5b5061022961067136600461286b565b6001600160a01b039182166000908152606a6020908152604080832093909416825291909152205460ff1690565b3480156106ab57600080fd5b506102f26106ba366004612833565b611c65565b60006001600160e01b031982166380ac58cd60e01b14806106f057506001600160e01b03198216635b5e139f60e01b145b8061070b57506301ffc9a760e01b6001600160e01b03198316145b92915050565b60606065805461072090612eb1565b80601f016020809104026020016040519081016040528092919081815260200182805461074c90612eb1565b80156107995780601f1061076e57610100808354040283529160200191610799565b820191906000526020600020905b81548152906001019060200180831161077c57829003601f168201915b5050505050905090565b6000818152606760205260408120546001600160a01b03166108215760405162461bcd60e51b815260206004820152602c60248201527f4552433732313a20617070726f76656420717565727920666f72206e6f6e657860448201526b34b9ba32b73a103a37b5b2b760a11b60648201526084015b60405180910390fd5b506000908152606960205260409020546001600160a01b031690565b600061084882610fc0565b9050806001600160a01b0316836001600160a01b031614156108b65760405162461bcd60e51b815260206004820152602160248201527f4552433732313a20617070726f76616c20746f2063757272656e74206f776e656044820152603960f91b6064820152608401610818565b336001600160a01b03821614806108d257506108d28133610671565b6109445760405162461bcd60e51b815260206004820152603860248201527f4552433732313a20617070726f76652063616c6c6572206973206e6f74206f7760448201527f6e6572206e6f7220617070726f76656420666f7220616c6c00000000000000006064820152608401610818565b61094e8383611cfd565b505050565b6097546001600160a01b0316331461097d5760405162461bcd60e51b815260040161081890612cba565b61013254600160401b90046001600160401b031642116109af5760405162461bcd60e51b815260040161081890612d8b565b6101325461013554600160801b90910463ffffffff1611806109d9575061013454610100900460ff165b610a1b5760405162461bcd60e51b8152602060048201526013602482015272115b9bdd59da081d1a58dad95d1cc81cdbdb19606a1b6044820152606401610818565b610acd610a306097546001600160a01b031690565b61012d60009054906101000a90046001600160a01b03166001600160a01b031663ddca3f436040518163ffffffff1660e01b8152600401602060405180830381600087803b158015610a8157600080fd5b505af1158015610a95573d6000803e3d6000fd5b505050506040513d601f19601f82011682018060405250810190610ab99190612bb8565b61012f546001600160a01b03169190611d6b565b610130546001600160a01b03166342842e0e30610af26097546001600160a01b031690565b610131546040516001600160e01b031960e086901b1681526001600160a01b0393841660048201529290911660248301526044820152606401600060405180830381600087803b158015610b4557600080fd5b505af1158015610b59573d6000803e3d6000fd5b50505050565b630a85bd0160e11b5b949350505050565b610b7a3382611dbd565b610b965760405162461bcd60e51b815260040161081890612cef565b61094e838383611eb0565b600260fb541415610bf45760405162461bcd60e51b815260206004820152601f60248201527f5265656e7472616e637947756172643a207265656e7472616e742063616c6c006044820152606401610818565b600260fb5561013254600160401b90046001600160401b03164211610c2b5760405162461bcd60e51b815260040161081890612d8b565b6101325461013554600160801b90910463ffffffff161180610c55575061013454610100900460ff165b610c975760405162461bcd60e51b8152602060048201526013602482015272115b9bdd59da081d1a58dad95d1cc81cdbdb19606a1b6044820152606401610818565b6000805b82811015610d675733610cd3858584818110610cc757634e487b7160e01b600052603260045260246000fd5b90506020020135610fc0565b6001600160a01b031614610d155760405162461bcd60e51b81526020600482015260096024820152682737ba1037bbb732b960b91b6044820152606401610818565b610d44848483818110610d3857634e487b7160e01b600052603260045260246000fd5b9050602002013561204c565b61013354610d539083906120e7565b915080610d5f81612eec565b915050610c9b565b50604051339082156108fc029083906000818181858888f19350505050158015610d95573d6000803e3d6000fd5b5050600160fb555050565b610132546001600160401b0316421015610de85760405162461bcd60e51b8152602060048201526009602482015268546f6f206561726c7960b81b6044820152606401610818565b61013254600160c01b900463ffffffff16610e0c82610e06336111b4565b906120e7565b1115610e4d5760405162461bcd60e51b815260206004820152601060248201526f486f6c64696e6720746f6f206d616e7960801b6044820152606401610818565b610132546101355463ffffffff600160a01b909204821691610e72919084906120e716565b1115610eb55760405162461bcd60e51b815260206004820152601260248201527145786365656473206d617820737570706c7960701b6044820152606401610818565b61013354610ec390826120fa565b3414610f035760405162461bcd60e51b815260206004820152600f60248201526e141c9a58d9481a5b98dbdc9c9958dd608a1b6044820152606401610818565b61013254600160401b90046001600160401b03164210610f545760405162461bcd60e51b815260206004820152600c60248201526b2637ba3a32b93c9037bb32b960a11b6044820152606401610818565b60005b81811015610fa157610f7833610135546001610f739190612e0c565b612106565b6101358054906000610f8983612eec565b91905055508080610f9990612eec565b915050610f57565b5050565b61094e838383604051806020016040528060008152506116ec565b6000818152606760205260408120546001600160a01b03168061070b5760405162461bcd60e51b815260206004820152602960248201527f4552433732313a206f776e657220717565727920666f72206e6f6e657869737460448201526832b73a103a37b5b2b760b91b6064820152608401610818565b6097546001600160a01b031633146110615760405162461bcd60e51b815260040161081890612cba565b6101345460ff166110aa5760405162461bcd60e51b8152602060048201526013602482015272135d5cdd0818d85b1b0815949188199a5c9cdd606a1b6044820152606401610818565b61012e5461013054610131546040516331a9108f60e11b815260048101919091526001600160a01b039283169290911690636352211e9060240160206040518083038186803b1580156110fc57600080fd5b505afa158015611110573d6000803e3d6000fd5b505050506040513d601f19601f82011682018060405250810190611134919061284f565b6001600160a01b031614156111785760405162461bcd60e51b815260206004820152600a602482015269139bc8159491881e595d60b21b6044820152606401610818565b6097546040516001600160a01b03909116904780156108fc02916000818181858888f193505050501580156111b1573d6000803e3d6000fd5b50565b60006001600160a01b03821661121f5760405162461bcd60e51b815260206004820152602a60248201527f4552433732313a2062616c616e636520717565727920666f7220746865207a65604482015269726f206164647265737360b01b6064820152608401610818565b506001600160a01b031660009081526068602052604090205490565b6097546001600160a01b031633146112655760405162461bcd60e51b815260040161081890612cba565b61126f6000612248565b565b6101325461129290600160401b90046001600160401b031662093a80612e24565b6001600160401b031642116112d55760405162461bcd60e51b8152602060048201526009602482015268546f6f206561726c7960b81b6044820152606401610818565b6101345460ff16156113195760405162461bcd60e51b815260206004820152600d60248201526c105b1c9958591e481594919959609a1b6044820152606401610818565b610134805461ff001916610100179055565b6097546001600160a01b031633146113555760405162461bcd60e51b815260040161081890612cba565b6101325461013554600160801b90910463ffffffff1611156113b95760405162461bcd60e51b815260206004820152601760248201527f4e6f7420656e6f756768207469636b65747320736f6c640000000000000000006044820152606401610818565b61013254600160401b90046001600160401b031642116113eb5760405162461bcd60e51b815260040161081890612d8b565b6101345460ff16156114345760405162461bcd60e51b815260206004820152601260248201527120b63932b0b23c9031b0b63632b2102b292360711b6044820152606401610818565b61012f5461012e5461012d546040805163ddca3f4360e01b815290516001600160a01b039485169463095ea7b394811693169163ddca3f439160048083019260209291908290030181600087803b15801561148e57600080fd5b505af11580156114a2573d6000803e3d6000fd5b505050506040513d601f19601f820116820180604052508101906114c69190612bb8565b6040516001600160e01b031960e085901b1681526001600160a01b0390921660048301526024820152604401602060405180830381600087803b15801561150c57600080fd5b505af1158015611520573d6000803e3d6000fd5b505050506040513d601f19601f820116820180604052508101906115449190612ada565b506101305461012e5460405163a22cb46560e01b81526001600160a01b0391821660048201526001602482015291169063a22cb46590604401600060405180830381600087803b15801561159757600080fd5b505af11580156115ab573d6000803e3d6000fd5b505061012e5461012d546040805163ddca3f4360e01b815290516001600160a01b0393841695506320d45bd49450919092169163ddca3f439160048083019260209291908290030181600087803b15801561160557600080fd5b505af1158015611619573d6000803e3d6000fd5b505050506040513d601f19601f8201168201806040525081019061163d9190612bb8565b61013554610130546101315460405160e086901b6001600160e01b031916815260048101949094523060248501526001604485015260648401929092526001600160a01b0316608483015260a482015260c401600060405180830381600087803b1580156116aa57600080fd5b505af11580156116be573d6000803e3d6000fd5b5050610134805460ff191660011790555050565b60606066805461072090612eb1565b610fa133838361229a565b6116f63383611dbd565b6117125760405162461bcd60e51b815260040161081890612cef565b610b5984848484612369565b600054610100900460ff166117395760005460ff161561173d565b303b155b6117a05760405162461bcd60e51b815260206004820152602e60248201527f496e697469616c697a61626c653a20636f6e747261637420697320616c72656160448201526d191e481a5b9a5d1a585b1a5e995960921b6064820152608401610818565b600054610100900460ff161580156117c2576000805461ffff19166101011790555b866001600160401b0316866001600160401b0316116118195760405162461bcd60e51b8152602060048201526013602482015272115b99081a5cc81899599bdc99481cdd185c9d606a1b6044820152606401610818565b60008563ffffffff16116118655760405162461bcd60e51b81526020600482015260136024820152724d696e2073656c6c206174206c65617374203160681b6044820152606401610818565b8363ffffffff168563ffffffff1611156118b85760405162461bcd60e51b815260206004820152601460248201527309ad2dc40cee4cac2e8cae440e8d0c2dc40dac2f60631b6044820152606401610818565b60018363ffffffff16101561190f5760405162461bcd60e51b815260206004820152601e60248201527f4d7573742062652061626c6520746f20627579206174206c65617374203100006044820152606401610818565b61191761239c565b6119626040518060400160405280600b81526020016a4e46542d4c4f545445525960a81b815250604051806040016040528060068152602001654c4f4f544f4f60d01b8152506123cb565b61196b33611c65565b61012d80546001600160a01b031916339081179091556040805163046b9d5360e31b8152905163235cea98916004808201926020929091908290030181600087803b1580156119b957600080fd5b505af11580156119cd573d6000803e3d6000fd5b505050506040513d601f19601f820116820180604052508101906119f1919061284f565b61012f80546001600160a01b0319166001600160a01b0392831617905561012d546040805163a51af4c560e01b81529051919092169163a51af4c59160048083019260209291908290030181600087803b158015611a4e57600080fd5b505af1158015611a62573d6000803e3d6000fd5b505050506040513d601f19601f82011682018060405250810190611a86919061284f565b61012e80546001600160a01b03199081166001600160a01b03938416179091556101308054909116918b1691909117905561013188905561013280546001600160401b038981166fffffffffffffffffffffffffffffffff1990921691909117600160401b918916919091021767ffffffffffffffff60801b1916600160801b63ffffffff8881169190910263ffffffff60a01b191691909117600160a01b878316021763ffffffff60c01b1916600160c01b918616919091021790556101338290558015611b5b576000805461ff00191690555b505050505050505050565b61012d5460408051631bebb49560e11b815290516060926001600160a01b0316916337d7692a916004808301926020929190829003018186803b158015611bac57600080fd5b505afa158015611bc0573d6000803e3d6000fd5b505050506040513d601f19601f82011682018060405250810190611be4919061284f565b6001600160a01b031663c87b56dd836040518263ffffffff1660e01b8152600401611c1191815260200190565b60006040518083038186803b158015611c2957600080fd5b505afa158015611c3d573d6000803e3d6000fd5b505050506040513d6000823e601f3d908101601f1916820160405261070b9190810190612b2e565b6097546001600160a01b03163314611c8f5760405162461bcd60e51b815260040161081890612cba565b6001600160a01b038116611cf45760405162461bcd60e51b815260206004820152602660248201527f4f776e61626c653a206e6577206f776e657220697320746865207a65726f206160448201526564647265737360d01b6064820152608401610818565b6111b181612248565b600081815260696020526040902080546001600160a01b0319166001600160a01b0384169081179091558190611d3282610fc0565b6001600160a01b03167f8c5be1e5ebec7d5bd14f71427d1e84f3dd0314c0f7b2291e5b200ac8c7c3b92560405160405180910390a45050565b604080516001600160a01b038416602482015260448082018490528251808303909101815260649091019091526020810180516001600160e01b031663a9059cbb60e01b17905261094e9084906123fc565b6000818152606760205260408120546001600160a01b0316611e365760405162461bcd60e51b815260206004820152602c60248201527f4552433732313a206f70657261746f7220717565727920666f72206e6f6e657860448201526b34b9ba32b73a103a37b5b2b760a11b6064820152608401610818565b6000611e4183610fc0565b9050806001600160a01b0316846001600160a01b03161480611e7c5750836001600160a01b0316611e71846107a3565b6001600160a01b0316145b80610b6857506001600160a01b038082166000908152606a602090815260408083209388168352929052205460ff16610b68565b826001600160a01b0316611ec382610fc0565b6001600160a01b031614611f275760405162461bcd60e51b815260206004820152602560248201527f4552433732313a207472616e736665722066726f6d20696e636f72726563742060448201526437bbb732b960d91b6064820152608401610818565b6001600160a01b038216611f895760405162461bcd60e51b8152602060048201526024808201527f4552433732313a207472616e7366657220746f20746865207a65726f206164646044820152637265737360e01b6064820152608401610818565b611f94600082611cfd565b6001600160a01b0383166000908152606860205260408120805460019290611fbd908490612e6e565b90915550506001600160a01b0382166000908152606860205260408120805460019290611feb908490612e0c565b909155505060008181526067602052604080822080546001600160a01b0319166001600160a01b0386811691821790925591518493918716917fddf252ad1be2c89b69c2b068fc378daa952ba7f163c4a11628f55a4df523b3ef91a4505050565b600061205782610fc0565b9050612064600083611cfd565b6001600160a01b038116600090815260686020526040812080546001929061208d908490612e6e565b909155505060008281526067602052604080822080546001600160a01b0319169055518391906001600160a01b038416907fddf252ad1be2c89b69c2b068fc378daa952ba7f163c4a11628f55a4df523b3ef908390a45050565b60006120f38284612e0c565b9392505050565b60006120f38284612e4f565b6001600160a01b03821661215c5760405162461bcd60e51b815260206004820181905260248201527f4552433732313a206d696e7420746f20746865207a65726f20616464726573736044820152606401610818565b6000818152606760205260409020546001600160a01b0316156121c15760405162461bcd60e51b815260206004820152601c60248201527f4552433732313a20746f6b656e20616c7265616479206d696e746564000000006044820152606401610818565b6001600160a01b03821660009081526068602052604081208054600192906121ea908490612e0c565b909155505060008181526067602052604080822080546001600160a01b0319166001600160a01b03861690811790915590518392907fddf252ad1be2c89b69c2b068fc378daa952ba7f163c4a11628f55a4df523b3ef908290a45050565b609780546001600160a01b038381166001600160a01b0319831681179093556040519116919082907f8be0079c531659141344cd1fd0a4f28419497f9722a3daafe3b4186f6b6457e090600090a35050565b816001600160a01b0316836001600160a01b031614156122fc5760405162461bcd60e51b815260206004820152601960248201527f4552433732313a20617070726f766520746f2063616c6c6572000000000000006044820152606401610818565b6001600160a01b038381166000818152606a6020908152604080832094871680845294825291829020805460ff191686151590811790915591519182527f17307eab39ab6107e8899845ad3d59bd9653f200f220920489ca2b5937696c31910160405180910390a3505050565b612374848484611eb0565b612380848484846124ce565b610b595760405162461bcd60e51b815260040161081890612c68565b600054610100900460ff166123c35760405162461bcd60e51b815260040161081890612d40565b61126f6125d8565b600054610100900460ff166123f25760405162461bcd60e51b815260040161081890612d40565b610fa18282612608565b6000612451826040518060400160405280602081526020017f5361666545524332303a206c6f772d6c6576656c2063616c6c206661696c6564815250856001600160a01b03166126569092919063ffffffff16565b80519091501561094e578080602001905181019061246f9190612ada565b61094e5760405162461bcd60e51b815260206004820152602a60248201527f5361666545524332303a204552433230206f7065726174696f6e20646964206e6044820152691bdd081cdd58d8d9595960b21b6064820152608401610818565b60006001600160a01b0384163b156125d057604051630a85bd0160e11b81526001600160a01b0385169063150b7a0290612512903390899088908890600401612c18565b602060405180830381600087803b15801561252c57600080fd5b505af192505050801561255c575060408051601f3d908101601f1916820190925261255991810190612b12565b60015b6125b6573d80801561258a576040519150601f19603f3d011682016040523d82523d6000602084013e61258f565b606091505b5080516125ae5760405162461bcd60e51b815260040161081890612c68565b805181602001fd5b6001600160e01b031916630a85bd0160e11b149050610b68565b506001610b68565b600054610100900460ff166125ff5760405162461bcd60e51b815260040161081890612d40565b61126f33612248565b600054610100900460ff1661262f5760405162461bcd60e51b815260040161081890612d40565b815161264290606590602085019061276a565b50805161094e90606690602084019061276a565b6060610b688484600085856001600160a01b0385163b6126b85760405162461bcd60e51b815260206004820152601d60248201527f416464726573733a2063616c6c20746f206e6f6e2d636f6e74726163740000006044820152606401610818565b600080866001600160a01b031685876040516126d49190612bfc565b60006040518083038185875af1925050503d8060008114612711576040519150601f19603f3d011682016040523d82523d6000602084013e612716565b606091505b5091509150612726828286612731565b979650505050505050565b606083156127405750816120f3565b8251156127505782518084602001fd5b8160405162461bcd60e51b81526004016108189190612c55565b82805461277690612eb1565b90600052602060002090601f01602090048101928261279857600085556127de565b82601f106127b157805160ff19168380011785556127de565b828001600101855582156127de579182015b828111156127de5782518255916020019190600101906127c3565b506127ea9291506127ee565b5090565b5b808211156127ea57600081556001016127ef565b803563ffffffff8116811461281757600080fd5b919050565b80356001600160401b038116811461281757600080fd5b600060208284031215612844578081fd5b81356120f381612f33565b600060208284031215612860578081fd5b81516120f381612f33565b6000806040838503121561287d578081fd5b823561288881612f33565b9150602083013561289881612f33565b809150509250929050565b6000806000606084860312156128b7578081fd5b83356128c281612f33565b925060208401356128d281612f33565b929592945050506040919091013590565b600080600080608085870312156128f8578081fd5b843561290381612f33565b9350602085013561291381612f33565b92506040850135915060608501356001600160401b03811115612934578182fd5b8501601f81018713612944578182fd5b803561295761295282612de5565b612db5565b81815288602083850101111561296b578384fd5b81602084016020830137908101602001929092525092959194509250565b6000806040838503121561299b578182fd5b82356129a681612f33565b9150602083013561289881612f48565b600080604083850312156129c8578182fd5b82356129d381612f33565b946020939093013593505050565b600080600080600080600080610100898b0312156129fd578384fd5b8835612a0881612f33565b975060208901359650612a1d60408a0161281c565b9550612a2b60608a0161281c565b9450612a3960808a01612803565b9350612a4760a08a01612803565b9250612a5560c08a01612803565b915060e089013590509295985092959890939650565b60008060208385031215612a7d578081fd5b82356001600160401b0380821115612a93578283fd5b818501915085601f830112612aa6578283fd5b813581811115612ab4578384fd5b8660208260051b8501011115612ac8578384fd5b60209290920196919550909350505050565b600060208284031215612aeb578081fd5b81516120f381612f48565b600060208284031215612b07578081fd5b81356120f381612f56565b600060208284031215612b23578081fd5b81516120f381612f56565b600060208284031215612b3f578081fd5b81516001600160401b03811115612b54578182fd5b8201601f81018413612b64578182fd5b8051612b7261295282612de5565b818152856020838501011115612b86578384fd5b612b97826020830160208601612e85565b95945050505050565b600060208284031215612bb1578081fd5b5035919050565b600060208284031215612bc9578081fd5b5051919050565b60008151808452612be8816020860160208601612e85565b601f01601f19169290920160200192915050565b60008251612c0e818460208701612e85565b9190910192915050565b6001600160a01b0385811682528416602082015260408101839052608060608201819052600090612c4b90830184612bd0565b9695505050505050565b6020815260006120f36020830184612bd0565b60208082526032908201527f4552433732313a207472616e7366657220746f206e6f6e20455243373231526560408201527131b2b4bb32b91034b6b83632b6b2b73a32b960711b606082015260800190565b6020808252818101527f4f776e61626c653a2063616c6c6572206973206e6f7420746865206f776e6572604082015260600190565b60208082526031908201527f4552433732313a207472616e736665722063616c6c6572206973206e6f74206f6040820152701ddb995c881b9bdc88185c1c1c9bdd9959607a1b606082015260800190565b6020808252602b908201527f496e697469616c697a61626c653a20636f6e7472616374206973206e6f74206960408201526a6e697469616c697a696e6760a81b606082015260800190565b60208082526010908201526f2637ba3a32b93c903737ba1037bb32b960811b604082015260600190565b604051601f8201601f191681016001600160401b0381118282101715612ddd57612ddd612f1d565b604052919050565b60006001600160401b03821115612dfe57612dfe612f1d565b50601f01601f191660200190565b60008219821115612e1f57612e1f612f07565b500190565b60006001600160401b03808316818516808303821115612e4657612e46612f07565b01949350505050565b6000816000190483118215151615612e6957612e69612f07565b500290565b600082821015612e8057612e80612f07565b500390565b60005b83811015612ea0578181015183820152602001612e88565b83811115610b595750506000910152565b600181811c90821680612ec557607f821691505b60208210811415612ee657634e487b7160e01b600052602260045260246000fd5b50919050565b6000600019821415612f0057612f00612f07565b5060010190565b634e487b7160e01b600052601160045260246000fd5b634e487b7160e01b600052604160045260246000fd5b6001600160a01b03811681146111b157600080fd5b80151581146111b157600080fd5b6001600160e01b0319811681146111b157600080fdfea26469706673582212203a99aee5589ae3db73475b2c4343b4fa28d5ec538afe2e80961c3046f20b9c2264736f6c63430008040033",
  "linkReferences": {},
  "deployedLinkReferences": {}
}