{
  "_format": "hh-sol-artifact-1",
  "contractName": "NFTCreator",
  "sourceName": "contracts/NFTCreator.sol",
  "abi": [
    {
      "anonymous": false,
      "inputs": [
        {
          "indexed": true,
          "internalType": "address",
          "name": "owner",
          "type": "address"
        },
        {
          "indexed": true,
          "internalType": "address",
          "name": "approved",
          "type": "address"
        },
        {
          "indexed": true,
          "internalType": "uint256",
          "name": "tokenId",
          "type": "uint256"
        }
      ],
      "name": "Approval",
      "type": "event"
    },
    {
      "anonymous": false,
      "inputs": [
        {
          "indexed": true,
          "internalType": "address",
          "name": "owner",
          "type": "address"
        },
        {
          "indexed": true,
          "internalType": "address",
          "name": "operator",
          "type": "address"
        },
        {
          "indexed": false,
          "internalType": "bool",
          "name": "approved",
          "type": "bool"
        }
      ],
      "name": "ApprovalForAll",
      "type": "event"
    },
    {
      "anonymous": false,
      "inputs": [
        {
          "indexed": true,
          "internalType": "uint256",
          "name": "tokenId",
          "type": "uint256"
        },
        {
          "indexed": true,
          "internalType": "address",
          "name": "to",
          "type": "address"
        },
        {
          "indexed": true,
          "internalType": "uint256",
          "name": "timestamp",
          "type": "uint256"
        }
      ],
      "name": "Bought",
      "type": "event"
    },
    {
      "anonymous": false,
      "inputs": [
        {
          "indexed": true,
          "internalType": "uint256",
          "name": "tokenId",
          "type": "uint256"
        },
        {
          "indexed": true,
          "internalType": "address",
          "name": "to",
          "type": "address"
        },
        {
          "indexed": true,
          "internalType": "uint256",
          "name": "timestamp",
          "type": "uint256"
        }
      ],
      "name": "Minted",
      "type": "event"
    },
    {
      "anonymous": false,
      "inputs": [
        {
          "indexed": true,
          "internalType": "address",
          "name": "previousOwner",
          "type": "address"
        },
        {
          "indexed": true,
          "internalType": "address",
          "name": "newOwner",
          "type": "address"
        }
      ],
      "name": "OwnershipTransferred",
      "type": "event"
    },
    {
      "anonymous": false,
      "inputs": [
        {
          "indexed": true,
          "internalType": "address",
          "name": "user",
          "type": "address"
        },
        {
          "indexed": true,
          "internalType": "bool",
          "name": "allow",
          "type": "bool"
        }
      ],
      "name": "SetAdmin",
      "type": "event"
    },
    {
      "anonymous": false,
      "inputs": [
        {
          "indexed": true,
          "internalType": "address",
          "name": "oldTreasury",
          "type": "address"
        },
        {
          "indexed": true,
          "internalType": "address",
          "name": "newTreasury",
          "type": "address"
        }
      ],
      "name": "SetTreasury",
      "type": "event"
    },
    {
      "anonymous": false,
      "inputs": [
        {
          "indexed": true,
          "internalType": "address",
          "name": "from",
          "type": "address"
        },
        {
          "indexed": true,
          "internalType": "address",
          "name": "to",
          "type": "address"
        },
        {
          "indexed": true,
          "internalType": "uint256",
          "name": "tokenId",
          "type": "uint256"
        }
      ],
      "name": "Transfer",
      "type": "event"
    },
    {
      "inputs": [],
      "name": "FIXED_PRICE",
      "outputs": [
        {
          "internalType": "uint256",
          "name": "",
          "type": "uint256"
        }
      ],
      "stateMutability": "view",
      "type": "function"
    },
    {
      "inputs": [
        {
          "internalType": "address",
          "name": "",
          "type": "address"
        }
      ],
      "name": "_admins",
      "outputs": [
        {
          "internalType": "bool",
          "name": "",
          "type": "bool"
        }
      ],
      "stateMutability": "view",
      "type": "function"
    },
    {
      "inputs": [],
      "name": "_tokenCounter",
      "outputs": [
        {
          "internalType": "uint256",
          "name": "",
          "type": "uint256"
        }
      ],
      "stateMutability": "view",
      "type": "function"
    },
    {
      "inputs": [
        {
          "internalType": "uint256",
          "name": "tokenId",
          "type": "uint256"
        }
      ],
      "name": "_tokenUri",
      "outputs": [
        {
          "internalType": "string",
          "name": "",
          "type": "string"
        }
      ],
      "stateMutability": "view",
      "type": "function"
    },
    {
      "inputs": [
        {
          "internalType": "address",
          "name": "to",
          "type": "address"
        },
        {
          "internalType": "uint256",
          "name": "tokenId",
          "type": "uint256"
        }
      ],
      "name": "approve",
      "outputs": [],
      "stateMutability": "nonpayable",
      "type": "function"
    },
    {
      "inputs": [
        {
          "internalType": "address",
          "name": "owner",
          "type": "address"
        }
      ],
      "name": "balanceOf",
      "outputs": [
        {
          "internalType": "uint256",
          "name": "",
          "type": "uint256"
        }
      ],
      "stateMutability": "view",
      "type": "function"
    },
    {
      "inputs": [],
      "name": "buy",
      "outputs": [],
      "stateMutability": "payable",
      "type": "function"
    },
    {
      "inputs": [],
      "name": "defaultRoyaltyInfo",
      "outputs": [
        {
          "internalType": "address",
          "name": "receiver",
          "type": "address"
        },
        {
          "internalType": "uint96",
          "name": "royaltyFraction",
          "type": "uint96"
        }
      ],
      "stateMutability": "view",
      "type": "function"
    },
    {
      "inputs": [
        {
          "internalType": "uint256",
          "name": "tokenId",
          "type": "uint256"
        }
      ],
      "name": "getApproved",
      "outputs": [
        {
          "internalType": "address",
          "name": "",
          "type": "address"
        }
      ],
      "stateMutability": "view",
      "type": "function"
    },
    {
      "inputs": [
        {
          "internalType": "address",
          "name": "_owner",
          "type": "address"
        },
        {
          "internalType": "string",
          "name": "_name",
          "type": "string"
        },
        {
          "internalType": "string",
          "name": "_symbol",
          "type": "string"
        },
        {
          "internalType": "address",
          "name": "_treasury",
          "type": "address"
        },
        {
          "internalType": "uint96",
          "name": "_feeNumerator",
          "type": "uint96"
        }
      ],
      "name": "initialize",
      "outputs": [],
      "stateMutability": "nonpayable",
      "type": "function"
    },
    {
      "inputs": [
        {
          "internalType": "address",
          "name": "account",
          "type": "address"
        }
      ],
      "name": "isAdmin",
      "outputs": [
        {
          "internalType": "bool",
          "name": "",
          "type": "bool"
        }
      ],
      "stateMutability": "view",
      "type": "function"
    },
    {
      "inputs": [
        {
          "internalType": "address",
          "name": "owner",
          "type": "address"
        },
        {
          "internalType": "address",
          "name": "operator",
          "type": "address"
        }
      ],
      "name": "isApprovedForAll",
      "outputs": [
        {
          "internalType": "bool",
          "name": "",
          "type": "bool"
        }
      ],
      "stateMutability": "view",
      "type": "function"
    },
    {
      "inputs": [
        {
          "internalType": "address",
          "name": "receiver",
          "type": "address"
        }
      ],
      "name": "mint",
      "outputs": [],
      "stateMutability": "nonpayable",
      "type": "function"
    },
    {
      "inputs": [],
      "name": "name",
      "outputs": [
        {
          "internalType": "string",
          "name": "",
          "type": "string"
        }
      ],
      "stateMutability": "view",
      "type": "function"
    },
    {
      "inputs": [],
      "name": "owner",
      "outputs": [
        {
          "internalType": "address",
          "name": "",
          "type": "address"
        }
      ],
      "stateMutability": "view",
      "type": "function"
    },
    {
      "inputs": [
        {
          "internalType": "uint256",
          "name": "tokenId",
          "type": "uint256"
        }
      ],
      "name": "ownerOf",
      "outputs": [
        {
          "internalType": "address",
          "name": "",
          "type": "address"
        }
      ],
      "stateMutability": "view",
      "type": "function"
    },
    {
      "inputs": [],
      "name": "renounceOwnership",
      "outputs": [],
      "stateMutability": "nonpayable",
      "type": "function"
    },
    {
      "inputs": [
        {
          "internalType": "uint256",
          "name": "_tokenId",
          "type": "uint256"
        },
        {
          "internalType": "uint256",
          "name": "_salePrice",
          "type": "uint256"
        }
      ],
      "name": "royaltyInfo",
      "outputs": [
        {
          "internalType": "address",
          "name": "",
          "type": "address"
        },
        {
          "internalType": "uint256",
          "name": "",
          "type": "uint256"
        }
      ],
      "stateMutability": "view",
      "type": "function"
    },
    {
      "inputs": [
        {
          "internalType": "address",
          "name": "from",
          "type": "address"
        },
        {
          "internalType": "address",
          "name": "to",
          "type": "address"
        },
        {
          "internalType": "uint256",
          "name": "tokenId",
          "type": "uint256"
        }
      ],
      "name": "safeTransferFrom",
      "outputs": [],
      "stateMutability": "nonpayable",
      "type": "function"
    },
    {
      "inputs": [
        {
          "internalType": "address",
          "name": "from",
          "type": "address"
        },
        {
          "internalType": "address",
          "name": "to",
          "type": "address"
        },
        {
          "internalType": "uint256",
          "name": "tokenId",
          "type": "uint256"
        },
        {
          "internalType": "bytes",
          "name": "_data",
          "type": "bytes"
        }
      ],
      "name": "safeTransferFrom",
      "outputs": [],
      "stateMutability": "nonpayable",
      "type": "function"
    },
    {
      "inputs": [
        {
          "internalType": "address",
          "name": "user",
          "type": "address"
        },
        {
          "internalType": "bool",
          "name": "allow",
          "type": "bool"
        }
      ],
      "name": "setAdmin",
      "outputs": [],
      "stateMutability": "nonpayable",
      "type": "function"
    },
    {
      "inputs": [
        {
          "internalType": "address",
          "name": "operator",
          "type": "address"
        },
        {
          "internalType": "bool",
          "name": "approved",
          "type": "bool"
        }
      ],
      "name": "setApprovalForAll",
      "outputs": [],
      "stateMutability": "nonpayable",
      "type": "function"
    },
    {
      "inputs": [
        {
          "internalType": "string",
          "name": "newURI",
          "type": "string"
        },
        {
          "internalType": "uint256",
          "name": "tokenId",
          "type": "uint256"
        }
      ],
      "name": "setTokenURI",
      "outputs": [],
      "stateMutability": "nonpayable",
      "type": "function"
    },
    {
      "inputs": [
        {
          "internalType": "address",
          "name": "account",
          "type": "address"
        }
      ],
      "name": "setTreasury",
      "outputs": [],
      "stateMutability": "nonpayable",
      "type": "function"
    },
    {
      "inputs": [
        {
          "internalType": "bytes4",
          "name": "interfaceId",
          "type": "bytes4"
        }
      ],
      "name": "supportsInterface",
      "outputs": [
        {
          "internalType": "bool",
          "name": "",
          "type": "bool"
        }
      ],
      "stateMutability": "view",
      "type": "function"
    },
    {
      "inputs": [],
      "name": "symbol",
      "outputs": [
        {
          "internalType": "string",
          "name": "",
          "type": "string"
        }
      ],
      "stateMutability": "view",
      "type": "function"
    },
    {
      "inputs": [
        {
          "internalType": "uint256",
          "name": "index",
          "type": "uint256"
        }
      ],
      "name": "tokenByIndex",
      "outputs": [
        {
          "internalType": "uint256",
          "name": "",
          "type": "uint256"
        }
      ],
      "stateMutability": "view",
      "type": "function"
    },
    {
      "inputs": [
        {
          "internalType": "address",
          "name": "owner",
          "type": "address"
        },
        {
          "internalType": "uint256",
          "name": "index",
          "type": "uint256"
        }
      ],
      "name": "tokenOfOwnerByIndex",
      "outputs": [
        {
          "internalType": "uint256",
          "name": "",
          "type": "uint256"
        }
      ],
      "stateMutability": "view",
      "type": "function"
    },
    {
      "inputs": [
        {
          "internalType": "uint256",
          "name": "tokenId",
          "type": "uint256"
        }
      ],
      "name": "tokenURI",
      "outputs": [
        {
          "internalType": "string",
          "name": "",
          "type": "string"
        }
      ],
      "stateMutability": "view",
      "type": "function"
    },
    {
      "inputs": [],
      "name": "totalSupply",
      "outputs": [
        {
          "internalType": "uint256",
          "name": "",
          "type": "uint256"
        }
      ],
      "stateMutability": "view",
      "type": "function"
    },
    {
      "inputs": [
        {
          "internalType": "address",
          "name": "from",
          "type": "address"
        },
        {
          "internalType": "address",
          "name": "to",
          "type": "address"
        },
        {
          "internalType": "uint256",
          "name": "tokenId",
          "type": "uint256"
        }
      ],
      "name": "transferFrom",
      "outputs": [],
      "stateMutability": "nonpayable",
      "type": "function"
    },
    {
      "inputs": [
        {
          "internalType": "address",
          "name": "newOwner",
          "type": "address"
        }
      ],
      "name": "transferOwnership",
      "outputs": [],
      "stateMutability": "nonpayable",
      "type": "function"
    },
    {
      "inputs": [],
      "name": "treasury",
      "outputs": [
        {
          "internalType": "address",
          "name": "",
          "type": "address"
        }
      ],
      "stateMutability": "view",
      "type": "function"
    },
    {
      "inputs": [
        {
          "internalType": "uint256",
          "name": "",
          "type": "uint256"
        }
      ],
      "name": "uris",
      "outputs": [
        {
          "internalType": "string",
          "name": "",
          "type": "string"
        }
      ],
      "stateMutability": "view",
      "type": "function"
    }
  ],
  "bytecode": "0x608060405234801561001057600080fd5b506126f3806100206000396000f3fe6080604052600436106101f95760003560e01c80634f6ccce71161010d5780639230b2bc116100a0578063b88d4fde1161006f578063b88d4fde14610615578063c87b56dd14610635578063e985e9c514610655578063f0f442601461069e578063f2fde38b146106be57600080fd5b80639230b2bc146105c157806395d89b41146105d8578063a22cb465146105ed578063a6f2ae3a1461060d57600080fd5b806370a08231116100dc57806370a0823114610553578063715018a614610573578063869cdfc3146105885780638da5cb5b146105a357600080fd5b80634f6ccce7146104d257806361d027b3146104f25780636352211e146105135780636a6278421461053357600080fd5b806318160ddd116101905780632a55205a1161015f5780632a55205a146104135780632f745c5914610452578063416a5f9b1461047257806342842e0e146104925780634b0bddd2146104b257600080fd5b806318160ddd146103405780631eb821ed1461035f57806323b872dd146103b957806324d7806c146103d957600080fd5b806309a3beef116101cc57806309a3beef146102af5780630d5e2053146102cf5780630e4dd9ea146103005780631253c5461461032057600080fd5b806301ffc9a7146101fe57806306fdde0314610233578063081812fc14610255578063095ea7b31461028d575b600080fd5b34801561020a57600080fd5b5061021e61021936600461230f565b6106de565b60405190151581526020015b60405180910390f35b34801561023f57600080fd5b506102486106ef565b60405161022a9190612455565b34801561026157600080fd5b5061027561027036600461238a565b610781565b6040516001600160a01b03909116815260200161022a565b34801561029957600080fd5b506102ad6102a83660046122e6565b61081b565b005b3480156102bb57600080fd5b506102ad6102ca366004612347565b610931565b3480156102db57600080fd5b5061021e6102ea36600461210a565b6101626020526000908152604090205460ff1681565b34801561030c57600080fd5b506102ad61031b366004612244565b61097b565b34801561032c57600080fd5b5061024861033b36600461238a565b610ab0565b34801561034c57600080fd5b5060fd545b60405190815260200161022a565b34801561036b57600080fd5b5061015f54610392906001600160a01b03811690600160a01b90046001600160601b031682565b604080516001600160a01b0390931683526001600160601b0390911660208301520161022a565b3480156103c557600080fd5b506102ad6103d4366004612156565b610b4b565b3480156103e557600080fd5b5061021e6103f436600461210a565b6001600160a01b03166000908152610162602052604090205460ff1690565b34801561041f57600080fd5b5061043361042e3660046123a2565b610b7c565b604080516001600160a01b03909316835260208301919091520161022a565b34801561045e57600080fd5b5061035161046d3660046122e6565b610c2a565b34801561047e57600080fd5b5061024861048d36600461238a565b610cc0565b34801561049e57600080fd5b506102ad6104ad366004612156565b610d63565b3480156104be57600080fd5b506102ad6104cd36600461220a565b610d7e565b3480156104de57600080fd5b506103516104ed36600461238a565b610dfd565b3480156104fe57600080fd5b5061016154610275906001600160a01b031681565b34801561051f57600080fd5b5061027561052e36600461238a565b610e9e565b34801561053f57600080fd5b506102ad61054e36600461210a565b610f15565b34801561055f57600080fd5b5061035161056e36600461210a565b610fea565b34801561057f57600080fd5b506102ad611071565b34801561059457600080fd5b50610351662386f26fc1000081565b3480156105af57600080fd5b506065546001600160a01b0316610275565b3480156105cd57600080fd5b506103516101605481565b3480156105e457600080fd5b506102486110a7565b3480156105f957600080fd5b506102ad61060836600461220a565b6110b6565b6102ad6110c5565b34801561062157600080fd5b506102ad610630366004612191565b6111ec565b34801561064157600080fd5b5061024861065036600461238a565b611224565b34801561066157600080fd5b5061021e610670366004612124565b6001600160a01b03918216600090815260ce6020908152604080832093909416825291909152205460ff1690565b3480156106aa57600080fd5b506102ad6106b936600461210a565b611305565b3480156106ca57600080fd5b506102ad6106d936600461210a565b611382565b60006106e98261141d565b92915050565b606060c980546106fe90612625565b80601f016020809104026020016040519081016040528092919081815260200182805461072a90612625565b80156107775780601f1061074c57610100808354040283529160200191610777565b820191906000526020600020905b81548152906001019060200180831161075a57829003601f168201915b5050505050905090565b600081815260cb60205260408120546001600160a01b03166107ff5760405162461bcd60e51b815260206004820152602c60248201527f4552433732313a20617070726f76656420717565727920666f72206e6f6e657860448201526b34b9ba32b73a103a37b5b2b760a11b60648201526084015b60405180910390fd5b50600090815260cd60205260409020546001600160a01b031690565b600061082682610e9e565b9050806001600160a01b0316836001600160a01b031614156108945760405162461bcd60e51b815260206004820152602160248201527f4552433732313a20617070726f76616c20746f2063757272656e74206f776e656044820152603960f91b60648201526084016107f6565b336001600160a01b03821614806108b057506108b08133610670565b6109225760405162461bcd60e51b815260206004820152603860248201527f4552433732313a20617070726f76652063616c6c6572206973206e6f74206f7760448201527f6e6572206e6f7220617070726f76656420666f7220616c6c000000000000000060648201526084016107f6565b61092c8383611442565b505050565b6065546001600160a01b0316331461095b5760405162461bcd60e51b81526004016107f6906124ba565b600081815261016360209081526040909120835161092c92850190611fc0565b600054610100900460ff166109965760005460ff161561099a565b303b155b6109fd5760405162461bcd60e51b815260206004820152602e60248201527f496e697469616c697a61626c653a20636f6e747261637420697320616c72656160448201526d191e481a5b9a5d1a585b1a5e995960921b60648201526084016107f6565b600054610100900460ff16158015610a1f576000805461ffff19166101011790555b610a2985856114b0565b610a316114e1565b610a3a86611382565b61016180546001600160a01b0319166001600160a01b038516179055610a608383611510565b604080518082019091526001600160a01b0384168082526001600160601b0384166020909201829052600160a01b9091021761015f558015610aa8576000805461ff00191690555b505050505050565b6101636020526000908152604090208054610aca90612625565b80601f0160208091040260200160405190810160405280929190818152602001828054610af690612625565b8015610b435780601f10610b1857610100808354040283529160200191610b43565b820191906000526020600020905b815481529060010190602001808311610b2657829003601f168201915b505050505081565b610b55338261160e565b610b715760405162461bcd60e51b81526004016107f6906124ef565b61092c838383611705565b600082815261012e602090815260408083208151808301909252546001600160a01b038116808352600160a01b9091046001600160601b0316928201929092528291610bf357506040805180820190915261012d546001600160a01b0381168252600160a01b90046001600160601b031660208201525b602081015160009061271090610c12906001600160601b0316876125c3565b610c1c91906125a3565b915196919550909350505050565b6000610c3583610fea565b8210610c975760405162461bcd60e51b815260206004820152602b60248201527f455243373231456e756d657261626c653a206f776e657220696e646578206f7560448201526a74206f6620626f756e647360a81b60648201526084016107f6565b506001600160a01b0391909116600090815260fb60209081526040808320938352929052205490565b600081815261016360205260409020805460609190610cde90612625565b80601f0160208091040260200160405190810160405280929190818152602001828054610d0a90612625565b8015610d575780601f10610d2c57610100808354040283529160200191610d57565b820191906000526020600020905b815481529060010190602001808311610d3a57829003601f168201915b50505050509050919050565b61092c838383604051806020016040528060008152506111ec565b6065546001600160a01b03163314610da85760405162461bcd60e51b81526004016107f6906124ba565b6001600160a01b03821660008181526101626020526040808220805460ff191685151590811790915590519092917f55a5194bc0174fcaf12b2978bef43911466bf63b34db8d1dd1a0d5dcd5c41bea91a35050565b6000610e0860fd5490565b8210610e6b5760405162461bcd60e51b815260206004820152602c60248201527f455243373231456e756d657261626c653a20676c6f62616c20696e646578206f60448201526b7574206f6620626f756e647360a01b60648201526084016107f6565b60fd8281548110610e8c57634e487b7160e01b600052603260045260246000fd5b90600052602060002001549050919050565b600081815260cb60205260408120546001600160a01b0316806106e95760405162461bcd60e51b815260206004820152602960248201527f4552433732313a206f776e657220717565727920666f72206e6f6e657869737460448201526832b73a103a37b5b2b760b91b60648201526084016107f6565b6065546001600160a01b0316331480610f3e5750336000908152610162602052604090205460ff165b610f8a5760405162461bcd60e51b815260206004820152601f60248201527f4f776e61626c653a2063616c6c6572206973206e6f7420616e2061646d696e0060448201526064016107f6565b61016054610f9882826118ac565b6101608054906000610fa983612660565b919050555042826001600160a01b0316827fc9d0543a84d3510329c0783b91576878ceb484e8699944cb5610c3436b3b8e3960405160405180910390a45050565b60006001600160a01b0382166110555760405162461bcd60e51b815260206004820152602a60248201527f4552433732313a2062616c616e636520717565727920666f7220746865207a65604482015269726f206164647265737360b01b60648201526084016107f6565b506001600160a01b0316600090815260cc602052604090205490565b6065546001600160a01b0316331461109b5760405162461bcd60e51b81526004016107f6906124ba565b6110a560006119fa565b565b606060ca80546106fe90612625565b6110c1338383611a4c565b5050565b600260015414156111185760405162461bcd60e51b815260206004820152601f60248201527f5265656e7472616e637947756172643a207265656e7472616e742063616c6c0060448201526064016107f6565b600260015534662386f26fc10000146111835760405162461bcd60e51b815260206004820152602760248201527f5061796d656e74206e6f7420657175616c20746f2045544820707269636520746044820152666f20706179202160c81b60648201526084016107f6565b6101605461119133826118ac565b61016080549060006111a283612660565b9190505550426111af3390565b6001600160a01b0316827fd2728f908c7e0feb83c6278798370fcb86b62f236c9dbf1a3f541096c215904060405160405180910390a45060018055565b6111f6338361160e565b6112125760405162461bcd60e51b81526004016107f6906124ef565b61121e84848484611b1b565b50505050565b600081815260cb60205260409020546060906001600160a01b03166112a45760405162461bcd60e51b815260206004820152603060248201527f4552433732314d657461646174613a2055524920717565727920666f72206e6f60448201526f3732bc34b9ba32b73a103a37b5b2b71760811b60648201526084016107f6565b60006112af83610cc0565b905060008151116112dd5760405180604001604052806005815260200164173539b7b760d91b8152506112fe565b806040516020016112ee91906123ef565b6040516020818303038152906040525b9392505050565b6065546001600160a01b0316331461132f5760405162461bcd60e51b81526004016107f6906124ba565b61016180546001600160a01b038381166001600160a01b0319831681179093556040519116919082907f190c262dc6f09322c68a13bf67c9659e58367755ba6190fa7ce5ca8aa45a877d90600090a35050565b6065546001600160a01b031633146113ac5760405162461bcd60e51b81526004016107f6906124ba565b6001600160a01b0381166114115760405162461bcd60e51b815260206004820152602660248201527f4f776e61626c653a206e6577206f776e657220697320746865207a65726f206160448201526564647265737360d01b60648201526084016107f6565b61141a816119fa565b50565b60006001600160e01b0319821663152a902d60e11b14806106e957506106e982611b4e565b600081815260cd6020526040902080546001600160a01b0319166001600160a01b038416908117909155819061147782610e9e565b6001600160a01b03167f8c5be1e5ebec7d5bd14f71427d1e84f3dd0314c0f7b2291e5b200ac8c7c3b92560405160405180910390a45050565b600054610100900460ff166114d75760405162461bcd60e51b81526004016107f690612540565b6110c18282611b73565b600054610100900460ff166115085760405162461bcd60e51b81526004016107f690612540565b6110a5611bc1565b6127106001600160601b038216111561157e5760405162461bcd60e51b815260206004820152602a60248201527f455243323938313a20726f79616c7479206665652077696c6c206578636565646044820152692073616c65507269636560b01b60648201526084016107f6565b6001600160a01b0382166115d45760405162461bcd60e51b815260206004820152601960248201527f455243323938313a20696e76616c69642072656365697665720000000000000060448201526064016107f6565b604080518082019091526001600160a01b039092168083526001600160601b039091166020909201829052600160a01b9091021761012d55565b600081815260cb60205260408120546001600160a01b03166116875760405162461bcd60e51b815260206004820152602c60248201527f4552433732313a206f70657261746f7220717565727920666f72206e6f6e657860448201526b34b9ba32b73a103a37b5b2b760a11b60648201526084016107f6565b600061169283610e9e565b9050806001600160a01b0316846001600160a01b031614806116cd5750836001600160a01b03166116c284610781565b6001600160a01b0316145b806116fd57506001600160a01b03808216600090815260ce602090815260408083209388168352929052205460ff165b949350505050565b826001600160a01b031661171882610e9e565b6001600160a01b03161461177c5760405162461bcd60e51b815260206004820152602560248201527f4552433732313a207472616e736665722066726f6d20696e636f72726563742060448201526437bbb732b960d91b60648201526084016107f6565b6001600160a01b0382166117de5760405162461bcd60e51b8152602060048201526024808201527f4552433732313a207472616e7366657220746f20746865207a65726f206164646044820152637265737360e01b60648201526084016107f6565b6117e9838383611bf1565b6117f4600082611442565b6001600160a01b038316600090815260cc6020526040812080546001929061181d9084906125e2565b90915550506001600160a01b038216600090815260cc6020526040812080546001929061184b90849061258b565b9091555050600081815260cb602052604080822080546001600160a01b0319166001600160a01b0386811691821790925591518493918716917fddf252ad1be2c89b69c2b068fc378daa952ba7f163c4a11628f55a4df523b3ef91a4505050565b6001600160a01b0382166119025760405162461bcd60e51b815260206004820181905260248201527f4552433732313a206d696e7420746f20746865207a65726f206164647265737360448201526064016107f6565b600081815260cb60205260409020546001600160a01b0316156119675760405162461bcd60e51b815260206004820152601c60248201527f4552433732313a20746f6b656e20616c7265616479206d696e7465640000000060448201526064016107f6565b61197360008383611bf1565b6001600160a01b038216600090815260cc6020526040812080546001929061199c90849061258b565b9091555050600081815260cb602052604080822080546001600160a01b0319166001600160a01b03861690811790915590518392907fddf252ad1be2c89b69c2b068fc378daa952ba7f163c4a11628f55a4df523b3ef908290a45050565b606580546001600160a01b038381166001600160a01b0319831681179093556040519116919082907f8be0079c531659141344cd1fd0a4f28419497f9722a3daafe3b4186f6b6457e090600090a35050565b816001600160a01b0316836001600160a01b03161415611aae5760405162461bcd60e51b815260206004820152601960248201527f4552433732313a20617070726f766520746f2063616c6c65720000000000000060448201526064016107f6565b6001600160a01b03838116600081815260ce6020908152604080832094871680845294825291829020805460ff191686151590811790915591519182527f17307eab39ab6107e8899845ad3d59bd9653f200f220920489ca2b5937696c31910160405180910390a3505050565b611b26848484611705565b611b3284848484611ca9565b61121e5760405162461bcd60e51b81526004016107f690612468565b60006001600160e01b0319821663780e9d6360e01b14806106e957506106e982611db6565b600054610100900460ff16611b9a5760405162461bcd60e51b81526004016107f690612540565b8151611bad9060c9906020850190611fc0565b50805161092c9060ca906020840190611fc0565b600054610100900460ff16611be85760405162461bcd60e51b81526004016107f690612540565b6110a5336119fa565b6001600160a01b038316611c4c57611c478160fd8054600083815260fe60205260408120829055600182018355919091527f9346ac6dd7de6b96975fec380d4d994c4c12e6a8897544f22915316cc6cca2800155565b611c6f565b816001600160a01b0316836001600160a01b031614611c6f57611c6f8382611e06565b6001600160a01b038216611c865761092c81611ea3565b826001600160a01b0316826001600160a01b03161461092c5761092c8282611f7c565b60006001600160a01b0384163b15611dab57604051630a85bd0160e11b81526001600160a01b0385169063150b7a0290611ced903390899088908890600401612418565b602060405180830381600087803b158015611d0757600080fd5b505af1925050508015611d37575060408051601f3d908101601f19168201909252611d349181019061232b565b60015b611d91573d808015611d65576040519150601f19603f3d011682016040523d82523d6000602084013e611d6a565b606091505b508051611d895760405162461bcd60e51b81526004016107f690612468565b805181602001fd5b6001600160e01b031916630a85bd0160e11b1490506116fd565b506001949350505050565b60006001600160e01b031982166380ac58cd60e01b1480611de757506001600160e01b03198216635b5e139f60e01b145b806106e957506301ffc9a760e01b6001600160e01b03198316146106e9565b60006001611e1384610fea565b611e1d91906125e2565b600083815260fc6020526040902054909150808214611e70576001600160a01b038416600090815260fb60209081526040808320858452825280832054848452818420819055835260fc90915290208190555b50600091825260fc602090815260408084208490556001600160a01b03909416835260fb81528383209183525290812055565b60fd54600090611eb5906001906125e2565b600083815260fe602052604081205460fd8054939450909284908110611eeb57634e487b7160e01b600052603260045260246000fd5b906000526020600020015490508060fd8381548110611f1a57634e487b7160e01b600052603260045260246000fd5b600091825260208083209091019290925582815260fe909152604080822084905585825281205560fd805480611f6057634e487b7160e01b600052603160045260246000fd5b6001900381819060005260206000200160009055905550505050565b6000611f8783610fea565b6001600160a01b03909316600090815260fb60209081526040808320868452825280832085905593825260fc9052919091209190915550565b828054611fcc90612625565b90600052602060002090601f016020900481019282611fee5760008555612034565b82601f1061200757805160ff1916838001178555612034565b82800160010185558215612034579182015b82811115612034578251825591602001919060010190612019565b50612040929150612044565b5090565b5b808211156120405760008155600101612045565b600067ffffffffffffffff8084111561207457612074612691565b604051601f8501601f19908116603f0116810190828211818310171561209c5761209c612691565b816040528093508581528686860111156120b557600080fd5b858560208301376000602087830101525050509392505050565b80356001600160a01b03811681146120e657600080fd5b919050565b600082601f8301126120fb578081fd5b6112fe83833560208501612059565b60006020828403121561211b578081fd5b6112fe826120cf565b60008060408385031215612136578081fd5b61213f836120cf565b915061214d602084016120cf565b90509250929050565b60008060006060848603121561216a578081fd5b612173846120cf565b9250612181602085016120cf565b9150604084013590509250925092565b600080600080608085870312156121a6578081fd5b6121af856120cf565b93506121bd602086016120cf565b925060408501359150606085013567ffffffffffffffff8111156121df578182fd5b8501601f810187136121ef578182fd5b6121fe87823560208401612059565b91505092959194509250565b6000806040838503121561221c578182fd5b612225836120cf565b915060208301358015158114612239578182fd5b809150509250929050565b600080600080600060a0868803121561225b578081fd5b612264866120cf565b9450602086013567ffffffffffffffff80821115612280578283fd5b61228c89838a016120eb565b955060408801359150808211156122a1578283fd5b506122ae888289016120eb565b9350506122bd606087016120cf565b915060808601356001600160601b03811681146122d8578182fd5b809150509295509295909350565b600080604083850312156122f8578182fd5b612301836120cf565b946020939093013593505050565b600060208284031215612320578081fd5b81356112fe816126a7565b60006020828403121561233c578081fd5b81516112fe816126a7565b60008060408385031215612359578182fd5b823567ffffffffffffffff81111561236f578283fd5b61237b858286016120eb565b95602094909401359450505050565b60006020828403121561239b578081fd5b5035919050565b600080604083850312156123b4578182fd5b50508035926020909101359150565b600081518084526123db8160208601602086016125f9565b601f01601f19169290920160200192915050565b600082516124018184602087016125f9565b64173539b7b760d91b920191825250600501919050565b6001600160a01b038581168252841660208201526040810183905260806060820181905260009061244b908301846123c3565b9695505050505050565b6020815260006112fe60208301846123c3565b60208082526032908201527f4552433732313a207472616e7366657220746f206e6f6e20455243373231526560408201527131b2b4bb32b91034b6b83632b6b2b73a32b960711b606082015260800190565b6020808252818101527f4f776e61626c653a2063616c6c6572206973206e6f7420746865206f776e6572604082015260600190565b60208082526031908201527f4552433732313a207472616e736665722063616c6c6572206973206e6f74206f6040820152701ddb995c881b9bdc88185c1c1c9bdd9959607a1b606082015260800190565b6020808252602b908201527f496e697469616c697a61626c653a20636f6e7472616374206973206e6f74206960408201526a6e697469616c697a696e6760a81b606082015260800190565b6000821982111561259e5761259e61267b565b500190565b6000826125be57634e487b7160e01b81526012600452602481fd5b500490565b60008160001904831182151516156125dd576125dd61267b565b500290565b6000828210156125f4576125f461267b565b500390565b60005b838110156126145781810151838201526020016125fc565b8381111561121e5750506000910152565b600181811c9082168061263957607f821691505b6020821081141561265a57634e487b7160e01b600052602260045260246000fd5b50919050565b60006000198214156126745761267461267b565b5060010190565b634e487b7160e01b600052601160045260246000fd5b634e487b7160e01b600052604160045260246000fd5b6001600160e01b03198116811461141a57600080fdfea26469706673582212200527af853f8947128ba2e69b0ae7fc83361d1639e28b1efa7245f2a2f10a27c864736f6c63430008040033",
  "linkReferences": {},
  "deployedLinkReferences": {}
}