{
  "_format": "hh-sol-artifact-1",
  "contractName": "Distributor",
  "sourceName": "contracts/Distributor.sol",
  "abi": [
    {
      "inputs": [
        {
          "internalType": "address",
          "name": "_vrf",
          "type": "address"
        },
        {
          "internalType": "address",
          "name": "_link",
          "type": "address"
        },
        {
          "internalType": "bytes32",
          "name": "_keyHash",
          "type": "bytes32"
        }
      ],
      "stateMutability": "nonpayable",
      "type": "constructor"
    },
    {
      "anonymous": false,
      "inputs": [
        {
          "indexed": true,
          "internalType": "address",
          "name": "prize",
          "type": "address"
        },
        {
          "indexed": false,
          "internalType": "uint256",
          "name": "id",
          "type": "uint256"
        },
        {
          "indexed": true,
          "internalType": "address",
          "name": "to",
          "type": "address"
        }
      ],
      "name": "RecipientSelected",
      "type": "event"
    },
    {
      "inputs": [
        {
          "internalType": "uint256",
          "name": "fee",
          "type": "uint256"
        },
        {
          "internalType": "address",
          "name": "_nftRecipientAddress",
          "type": "address"
        },
        {
          "internalType": "uint256",
          "name": "startIndex",
          "type": "uint256"
        },
        {
          "internalType": "uint256",
          "name": "endIndex",
          "type": "uint256"
        },
        {
          "internalType": "address",
          "name": "_rewardAddress",
          "type": "address"
        },
        {
          "internalType": "uint256",
          "name": "_rewardId",
          "type": "uint256"
        }
      ],
      "name": "distributeToNftHolders",
      "outputs": [],
      "stateMutability": "nonpayable",
      "type": "function"
    },
    {
      "inputs": [
        {
          "internalType": "bytes32",
          "name": "_requestID",
          "type": "bytes32"
        }
      ],
      "name": "isRequestIDFulfilled",
      "outputs": [
        {
          "internalType": "bool",
          "name": "",
          "type": "bool"
        }
      ],
      "stateMutability": "view",
      "type": "function"
    },
    {
      "inputs": [],
      "name": "link",
      "outputs": [
        {
          "internalType": "contract LinkTokenInterface",
          "name": "",
          "type": "address"
        }
      ],
      "stateMutability": "view",
      "type": "function"
    },
    {
      "inputs": [
        {
          "internalType": "bytes32",
          "name": "",
          "type": "bytes32"
        }
      ],
      "name": "nftRecipientAddress",
      "outputs": [
        {
          "internalType": "address",
          "name": "",
          "type": "address"
        }
      ],
      "stateMutability": "view",
      "type": "function"
    },
    {
      "inputs": [
        {
          "internalType": "bytes32",
          "name": "",
          "type": "bytes32"
        }
      ],
      "name": "nftRecipientEnd",
      "outputs": [
        {
          "internalType": "uint256",
          "name": "",
          "type": "uint256"
        }
      ],
      "stateMutability": "view",
      "type": "function"
    },
    {
      "inputs": [
        {
          "internalType": "bytes32",
          "name": "",
          "type": "bytes32"
        }
      ],
      "name": "nftRecipientStart",
      "outputs": [
        {
          "internalType": "uint256",
          "name": "",
          "type": "uint256"
        }
      ],
      "stateMutability": "view",
      "type": "function"
    },
    {
      "inputs": [
        {
          "internalType": "address",
          "name": "",
          "type": "address"
        },
        {
          "internalType": "address",
          "name": "",
          "type": "address"
        },
        {
          "internalType": "uint256",
          "name": "",
          "type": "uint256"
        },
        {
          "internalType": "bytes",
          "name": "",
          "type": "bytes"
        }
      ],
      "name": "onERC721Received",
      "outputs": [
        {
          "internalType": "bytes4",
          "name": "",
          "type": "bytes4"
        }
      ],
      "stateMutability": "nonpayable",
      "type": "function"
    },
    {
      "inputs": [
        {
          "internalType": "bytes32",
          "name": "_requestID",
          "type": "bytes32"
        }
      ],
      "name": "randomForRequestID",
      "outputs": [
        {
          "internalType": "uint256",
          "name": "",
          "type": "uint256"
        }
      ],
      "stateMutability": "view",
      "type": "function"
    },
    {
      "inputs": [
        {
          "internalType": "bytes32",
          "name": "requestId",
          "type": "bytes32"
        },
        {
          "internalType": "uint256",
          "name": "randomness",
          "type": "uint256"
        }
      ],
      "name": "rawFulfillRandomness",
      "outputs": [],
      "stateMutability": "nonpayable",
      "type": "function"
    },
    {
      "inputs": [
        {
          "internalType": "bytes32",
          "name": "",
          "type": "bytes32"
        }
      ],
      "name": "rewardAddress",
      "outputs": [
        {
          "internalType": "address",
          "name": "",
          "type": "address"
        }
      ],
      "stateMutability": "view",
      "type": "function"
    },
    {
      "inputs": [
        {
          "internalType": "bytes32",
          "name": "",
          "type": "bytes32"
        }
      ],
      "name": "rewardId",
      "outputs": [
        {
          "internalType": "uint256",
          "name": "",
          "type": "uint256"
        }
      ],
      "stateMutability": "view",
      "type": "function"
    }
  ],
  "bytecode": "0x61010060405234801561001157600080fd5b50604051610c3a380380610c3a83398101604081905261003091610074565b6001600160601b0319606093841b811660a0529190921b16608081905260e05260c0526100af565b80516001600160a01b038116811461006f57600080fd5b919050565b600080600060608486031215610088578283fd5b61009184610058565b925061009f60208501610058565b9150604084015190509250925092565b60805160601c60a05160601c60c05160e05160601c610b3c6100fe6000396000818160ef01526102780152600061036a0152600081816104640152610512015260006104e30152610b3c6000f3fe608060405234801561001057600080fd5b50600436106100a95760003560e01c8063722ecdcb11610071578063722ecdcb146101955780638c821cb0146101b557806391ac00ca146101e757806394985ddd146101fa578063beb553f71461020d578063d23701a81461022d57600080fd5b8063150b7a02146100ae5780631c4695f4146100ea57806320d45bd41461012957806342654adc1461013e5780634baaa80314610167575b600080fd5b6100cc6100bc36600461087a565b630a85bd0160e11b949350505050565b6040516001600160e01b031990911681526020015b60405180910390f35b6101117f000000000000000000000000000000000000000000000000000000000000000081565b6040516001600160a01b0390911681526020016100e1565b61013c6101373660046109ac565b610256565b005b61011161014c366004610973565b6003602052600090815260409020546001600160a01b031681565b610187610175366004610973565b60056020526000908152604090205481565b6040519081526020016100e1565b6101876101a3366004610973565b60046020526000908152604090205481565b6101d76101c3366004610973565b600090815260066020526040902054151590565b60405190151581526020016100e1565b6101876101f5366004610973565b6103f6565b61013c61020836600461098b565b610459565b61018761021b366004610973565b60026020526000908152604090205481565b61011161023b366004610973565b6001602052600090815260409020546001600160a01b031681565b6040516323b872dd60e01b8152336004820152306024820152604481018790527f00000000000000000000000000000000000000000000000000000000000000006001600160a01b0316906323b872dd90606401602060405180830381600087803b1580156102c457600080fd5b505af11580156102d8573d6000803e3d6000fd5b505050506040513d601f19601f820116820180604052508101906102fc9190610953565b50604051632142170760e11b8152336004820152306024820152604481018290526001600160a01b038316906342842e0e90606401600060405180830381600087803b15801561034b57600080fd5b505af115801561035f573d6000803e3d6000fd5b50505050600061038f7f0000000000000000000000000000000000000000000000000000000000000000886104df565b600090815260036020908152604080832080546001600160a01b039a8b166001600160a01b03199182161790915560048352818420989098556005825280832096909655600181528582208054959098169490961693909317909555600290935220555050565b6000818152600660205260408120546104465760405162461bcd60e51b815260206004820152600d60248201526c139bdd08199d5b199a5b1b1959609a1b60448201526064015b60405180910390fd5b5060009081526006602052604090205490565b336001600160a01b037f000000000000000000000000000000000000000000000000000000000000000016146104d15760405162461bcd60e51b815260206004820152601f60248201527f4f6e6c7920565246436f6f7264696e61746f722063616e2066756c66696c6c00604482015260640161043d565b6104db8282610668565b5050565b60007f00000000000000000000000000000000000000000000000000000000000000006001600160a01b0316634000aea07f00000000000000000000000000000000000000000000000000000000000000008486600060405160200161054f929190918252602082015260400190565b6040516020818303038152906040526040518463ffffffff1660e01b815260040161057c93929190610a09565b602060405180830381600087803b15801561059657600080fd5b505af11580156105aa573d6000803e3d6000fd5b505050506040513d601f19601f820116820180604052508101906105ce9190610953565b5060008381526020818152604080832054815180840188905280830185905230606082015260808082018390528351808303909101815260a090910190925281519183019190912086845292909152610628906001610a73565b6000858152602081815260409182902092909255805180830187905280820184905281518082038301815260609091019091528051910120949350505050565b6000828152600660209081526040808320849055600482528083205460058352818420546003909352908320549092906001600160a01b0316636352211e84806106b3866001610a73565b6106bd9190610a8b565b6106c79088610aa2565b6106d19190610a73565b6040518263ffffffff1660e01b81526004016106ef91815260200190565b60206040518083038186803b15801561070757600080fd5b505afa15801561071b573d6000803e3d6000fd5b505050506040513d601f19601f8201168201806040525081019061073f9190610857565b6000868152600160209081526040808320546002909252918290205491516323b872dd60e01b81523060048201526001600160a01b038085166024830152604482019390935292935016906323b872dd90606401600060405180830381600087803b1580156107ad57600080fd5b505af11580156107c1573d6000803e3d6000fd5b50505060008681526001602090815260408083205460028352928190205490519081526001600160a01b038581169450909216917fcaeced81217f154af5db68ba5975ab981c95753c132ec5fc20aaa2dde006b37a910160405180910390a350505060009182525060036020908152604080832080546001600160a01b0319169055600482528083208390556005909152812055565b600060208284031215610868578081fd5b815161087381610aee565b9392505050565b6000806000806080858703121561088f578283fd5b843561089a81610aee565b935060208501356108aa81610aee565b925060408501359150606085013567ffffffffffffffff808211156108cd578283fd5b818701915087601f8301126108e0578283fd5b8135818111156108f2576108f2610ad8565b604051601f8201601f19908116603f0116810190838211818310171561091a5761091a610ad8565b816040528281528a6020848701011115610932578586fd5b82602086016020830137918201602001949094529598949750929550505050565b600060208284031215610964578081fd5b81518015158114610873578182fd5b600060208284031215610984578081fd5b5035919050565b6000806040838503121561099d578182fd5b50508035926020909101359150565b60008060008060008060c087890312156109c4578182fd5b8635955060208701356109d681610aee565b9450604087013593506060870135925060808701356109f481610aee565b8092505060a087013590509295509295509295565b60018060a01b0384168152600060208481840152606060408401528351806060850152825b81811015610a4a57858101830151858201608001528201610a2e565b81811115610a5b5783608083870101525b50601f01601f19169290920160800195945050505050565b60008219821115610a8657610a86610ac2565b500190565b600082821015610a9d57610a9d610ac2565b500390565b600082610abd57634e487b7160e01b81526012600452602481fd5b500690565b634e487b7160e01b600052601160045260246000fd5b634e487b7160e01b600052604160045260246000fd5b6001600160a01b0381168114610b0357600080fd5b5056fea2646970667358221220c25615439eac4cc62d5ddd2435c575df94efac017b84fbc657d9839bcc9a13d864736f6c63430008040033",
  "linkReferences": {},
  "deployedLinkReferences": {}
}